:020000040800F2
:100000000000022045A600080DA5000839100008D0
:1000100015A500081DA5000825A500080000000082
:10002000000000000000000000000000F12A0108AC
:100030002DA5000800000000412D0108A92D010890
:1000400095A6000895A6000895A6000895A60008A4
:1000500095A6000895A6000895A6000895A6000894
:1000600095A6000895A6000895A6000895A6000884
:1000700095A6000895A6000895A6000895A6000874
:100080003DA5000895A6000895A6000895A60008BD
:1000900095A6000895A6000895A6000895A6000854
:1000A00095A6000895A6000895A6000895A6000844
:1000B00095A6000895A6000895A6000895A6000834
:1000C00095A6000895A6000895A6000895A6000824
:1000D00095A6000851A5000865A5000895A600088A
:1000E00095A6000879A5000895A6000895A6000821
:1000F00095A6000895A6000895A6000895A60008F4
:1001000095A6000895A6000895A6000895A60008E3
:1001100095A6000895A600088DA5000895A60008DC
:1001200095A6000895A60008A1A5000895A60008B8
:1001300095A6000895A6000895A6000895A60008B3
:1001400095A6000895A6000895A6000895A60008A3
:1001500095A6000895A6000895A6000895A6000893
:1001600095A6000895A6000895A6000895A6000883
:1001700095A6000895A6000895A6000800000000B6
:0801800095A6000895A60008F1
:1001900010B5054C237833B9044B13B10448AFF3C1
:1001A00000800123237010BDB80100200000000072
:1001B000D03F010808B5034B1BB103490348AFF317
:1001C000008008BD00000000BC010020D03F0108F5
:1001D00001F0FF01102A2BDB10F0070F08D010F8F8
:1001E000013B013A8B422DD010F0070F42B3F6D1FC
:1001F000F0B441EA012141EA014122F007047FF015
:1002000000070023F0E80256083C85EA010586EA6B
:10021000010685FA47F5A3FA87F586FA47F6A5FAA7
:1002200087F68EB9EED1F0BC01F0FF0102F00702B3
:1002300032B110F8013B013A83EA010313B1F8D15E
:100240000020704701387047002D06BF354603383F
:10025000073815F0010F07D1013015F4807F02BF78
:10026000013015F4C03F0130F0BC0138704700BFC9
:1002700081F0004102E000BF83F0004330B54FEA57
:1002800041044FEA430594EA050F08BF90EA020FC4
:100290001FBF54EA000C55EA020C7FEA645C7FEA57
:1002A000655C00F0E2804FEA5454D4EB5555B8BF7A
:1002B0006D420CDD2C4480EA020281EA030382EAEB
:1002C000000083EA010180EA020281EA0303362D7D
:1002D00088BF30BD11F0004F4FEA01314FF4801C50
:1002E0004CEA113102D0404261EB410113F0004F62
:1002F0004FEA03334CEA133302D0524263EB430319
:1003000094EA050F00F0A780A4F10104D5F1200EB6
:100310000DDB02FA0EFC22FA05F2801841F1000111
:1003200003FA0EF2801843FA05F359410EE0A5F1E5
:1003300020050EF1200E012A03FA0EFC28BF4CF016
:10034000020C43FA05F3C01851EBE37101F00045CC
:1003500007D54FF0000EDCF1000C7EEB00006EEBD9
:100360000101B1F5801F1BD3B1F5001F0CD3490863
:100370005FEA30004FEA3C0C04F101044FEA4452BA
:1003800012F5800F80F09A80BCF1004F08BF5FEA41
:10039000500C50F1000041EB045141EA050130BD21
:1003A0005FEA4C0C404141EB0101013C28BFB1F533
:1003B000801FE9D291F0000F04BF01460020B1FA7E
:1003C00081F308BF2033A3F10B03B3F120020CDA51
:1003D0000C3208DD02F1140CC2F10C0201FA0CF02F
:1003E00021FA02F10CE002F11402D8BFC2F1200C94
:1003F00001FA02F120FA0CFCDCBF41EA0C0190404A
:10040000E41AA2BF01EB0451294330BD6FEA040492
:100410001F3C1CDA0C340EDC04F11404C4F120027D
:1004200020FA04F001FA02F340EA030021FA04F38F
:1004300045EA030130BDC4F10C04C4F1200220FAE6
:1004400002F001FA04F340EA0300294630BD21FA24
:1004500004F0294630BD94F0000F83F4801306BFEA
:1004600081F480110134013D4EE77FEA645C18BFDE
:100470007FEA655C29D094EA050F08BF90EA020F75
:1004800005D054EA000C04BF1946104630BD91EA6D
:10049000030F1EBF0021002030BD5FEA545C05D170
:1004A0004000494128BF41F0004130BD14F58004AF
:1004B0003CBF01F5801130BD01F0004545F0FE4123
:1004C00041F470014FF0000030BD7FEA645C1ABF58
:1004D000194610467FEA655C1CBF0B46024650EA8F
:1004E000013406BF52EA033591EA030F41F40021BB
:1004F00030BD00BF90F0000F04BF0021704730B541
:100500004FF4806404F132044FF000054FF0000115
:1005100050E700BF90F0000F04BF0021704730B5D6
:100520004FF4806404F1320410F0004548BF4042AB
:100530004FF000013EE700BF42004FEAE2014FEA00
:1005400031014FEA02701FBF12F07F4393F07F4FDB
:1005500081F06051704732F07F4208BF704793F0DE
:100560007F4F04BF41F40021704730B54FF46074F1
:1005700001F0004521F000411CE700BF50EA0102F4
:1005800008BF704730B54FF000050AE050EA01029D
:1005900008BF704730B511F0004502D5404261EB0D
:1005A00041014FF4806404F132045FEA915C3FF44E
:1005B000D8AE4FF003025FEADC0C18BF03325FEAEB
:1005C000DC0C18BF033202EBDC02C2F1200300FA9C
:1005D00003FC20FA02F001FA03FE40EA0E0021FAC1
:1005E00002F11444BDE600BF70B54FF0FF0C4CF4AF
:1005F000E06C1CEA11541DBF1CEA135594EA0C0F61
:1006000095EA0C0F00F0DEF82C4481EA030621EA9B
:100610004C5123EA4C5350EA013518BF52EA0335D6
:1006200041F4801143F4801338D0A0FB02CE4FF088
:100630000005E1FB02E506F00042E0FB03E54FF0B8
:100640000006E1FB03569CF0000F18BF4EF0010EB0
:10065000A4F1FF04B6F5007F64F5407404D25FEAAC
:100660004E0E6D4146EB060642EAC62141EA55515F
:100670004FEAC52040EA5E504FEACE2EB4F1FD0CA1
:1006800088BFBCF5E06F1ED8BEF1004F08BF5FEA1F
:10069000500E50F1000041EB045170BD06F00046D1
:1006A00046EA010140EA020081EA0301B4EB5C047E
:1006B000C2BFD4EB0C0541EA045170BD41F4801176
:1006C0004FF0000E013C00F3AB8014F1360FDEBF9B
:1006D000002001F0004170BDC4F10004203C35DA77
:1006E0000C341BDC04F11404C4F1200500FA05F3FA
:1006F00020FA04F001FA05F240EA020001F000429B
:1007000021F0004110EBD37021FA04F642EB060110
:100710005EEA430E08BF20EAD37070BDC4F10C043A
:10072000C4F1200500FA04F320FA05F001FA04F2FE
:1007300040EA020001F0004110EBD37041F10001EA
:100740005EEA430E08BF20EAD37070BDC4F12005F5
:1007500000FA05F24EEA020E20FA04F301FA05F25D
:1007600043EA020321FA04F001F0004121FA04F205
:1007700020EA020000EBD3705EEA430E08BF20EAD5
:10078000D37070BD94F0000F0FD101F0004640000F
:1007900041EB010111F4801F08BF013CF7D041EA91
:1007A000060195F0000F18BF704703F00046520095
:1007B00043EB030313F4801F08BF013DF7D043EA66
:1007C0000603704794EA0C0F0CEA135518BF95EA1C
:1007D0000C0F0CD050EA410618BF52EA4306D1D1A3
:1007E00081EA030101F000414FF0000070BD50EAC2
:1007F000410606BF1046194652EA430619D094EA4C
:100800000C0F02D150EA013613D195EA0C0F05D135
:1008100052EA03361CBF104619460AD181EA030189
:1008200001F0004141F0FE4141F470014FF0000041
:1008300070BD41F0FE4141F4780170BD70B54FF0DC
:10084000FF0C4CF4E06C1CEA11541DBF1CEA13555C
:1008500094EA0C0F95EA0C0F00F0A7F8A4EB05043E
:1008600081EA030E52EA03354FEA013100F0888035
:100870004FEA03334FF0805545EA131343EA1263FE
:100880004FEA022245EA111545EA10654FEA0026B3
:100890000EF000419D4208BF964244F1FD0404F56C
:1008A000407402D25B084FEA3202B61A65EB0305C8
:1008B0005B084FEA32024FF480104FF4002CB6EB85
:1008C000020E75EB030E22BFB61A754640EA0C0005
:1008D0005B084FEA3202B6EB020E75EB030E22BF45
:1008E000B61A754640EA5C005B084FEA3202B6EB86
:1008F000020E75EB030E22BFB61A754640EA9C0045
:100900005B084FEA3202B6EB020E75EB030E22BF14
:10091000B61A754640EADC0055EA060E18D04FEAD2
:10092000051545EA16754FEA06164FEAC30343EA72
:1009300052734FEAC2025FEA1C1CC0D111F4801F3F
:100940000BD141EA00014FF000004FF0004CB6E738
:1009500011F4801F04BF01430020B4F1FD0C88BFD7
:10096000BCF5E06F3FF6AFAEB5EB030C04BFB6EBE2
:10097000020C5FEA500C50F1000041EB045170BDD5
:100980000EF0004E4EEA113114EB5C04C2BFD4EB02
:100990000C0541EA045170BD41F480114FF0000E86
:1009A000013C90E645EA060E8DE60CEA135594EA02
:1009B0000C0F08BF95EA0C0F3FF43BAF94EA0C0F05
:1009C0000AD150EA01347FF434AF95EA0C0F7FF47A
:1009D00025AF104619462CE795EA0C0F06D152EACE
:1009E00003353FF4FDAE1046194622E750EA4106B2
:1009F00018BF52EA43067FF4C5AE50EA41047FF4C3
:100A00000DAF52EA43057FF4EBAE12E74FF0FF3C27
:100A100006E000BF4FF0010C02E000BF4FF0010CF8
:100A20004DF804CD4FEA410C7FEA6C5C4FEA430C71
:100A300018BF7FEA6C5C1BD001B050EA410C0CBFC0
:100A400052EA430C91EA030F02BF90EA020F002022
:100A5000704710F1000F91EA030F58BF994208BF89
:100A600090422CBFD8176FEAE37040F00100704746
:100A70004FEA410C7FEA6C5C02D150EA013C07D19D
:100A80004FEA430C7FEA6C5CD6D152EA033CD3D0E8
:100A90005DF8040B704700BF8446104662468C46E2
:100AA0001946634600E000BF01B5FFF7B7FF002815
:100AB00048BF10F1000F01BD4DF808EDFFF7F4FF3E
:100AC0000CBF012000205DF808FB00BF4DF808EDC9
:100AD000FFF7EAFF34BF012000205DF808FB00BFEC
:100AE0004DF808EDFFF7E0FF94BF012000205DF80E
:100AF00008FB00BF4DF808EDFFF7CEFF94BF0120C3
:100B000000205DF808FB00BF4DF808EDFFF7C4FFBB
:100B100034BF012000205DF808FB00BF4FEA410C04
:100B20007FEA6C5C02D150EA013C0AD14FEA430CE7
:100B30007FEA6C5C02D152EA033C02D14FF0000024
:100B400070474FF0010070474FEA410212F5001262
:100B500015D211D56FF47873B3EB625212D94FEA04
:100B6000C12343F0004343EA505311F0004F23FAEE
:100B700002F018BF404270474FF00000704750EA43
:100B8000013005D111F0004008BF6FF00040704700
:100B90004FF00000704700BF4A0011D212F500125A
:100BA00011D20DD56FF47873B3EB62520ED44FEAC5
:100BB000C12343F0004343EA505323FA02F0704745
:100BC0004FF00000704750EA013002D14FF0FF3083
:100BD00070474FF0000070474FEA4102B2F1E04326
:100BE00024BFB3F5001CDCF1FE5C0DD901F0004C14
:100BF0004FEAC0024CEA5070B2F1004F40EB830064
:100C000008BF20F00100704711F0804F21D113F18F
:100C10003872BCBF01F00040704741F480114FEAC8
:100C20005252C2F11802C2F1200C10FA0CF320FA51
:100C300002F018BF40F001004FEAC1234FEAD3236E
:100C400003FA0CFC40EA0C0023FA02F34FEA4303D8
:100C5000CCE77FEA625307D150EA01331EBF4FF061
:100C6000FE4040F44000704701F0004040F0FE407C
:100C700040F40000704700BF53B94AB9002908BFCB
:100C800000281CBF4FF0FF314FF0FF3000F088B953
:100C9000ADF1080C6DE904CE00F006F8DDF804E0D3
:100CA000DDE9022304B070472DE9F047089D8E4628
:100CB00004468846002B4AD18A42174662D9B2FAC6
:100CC00082F64EB1C6F1200301FA06F820FA03F3CA
:100CD000B74043EA0808B4404FEA174E1FFA87FCB2
:100CE000B8FBFEF1230C0EFB118843EA084301FB1D
:100CF0000CF29A4209D9FB1801F1FF3080F0EA802A
:100D00009A4240F2E78002393B449A1AA3B2B2FBFE
:100D1000FEF00EFB102243EA024300FB0CFC9C4554
:100D200009D9FB1800F1FF3280F0D6809C4540F2D3
:100D3000D3803B44023840EA0140A3EB0C0300217E
:100D40001DB1F3400022C5E90032BDE8F0878B42B7
:100D500005D90DB1C5E9000100210846F5E7B3FA50
:100D600083F1002946D1734502D3824200F2058106
:100D7000841A6EEB030201209046002DE5D0C5E9F0
:100D80000048E2E7002A00F09080B2FA82F6002ED6
:100D900040F0A4808A1A030C4FEA174E80B2BCB20E
:100DA0000121B2FBFEFC0EFB1C2243EA024304FBC2
:100DB0000CF29A4207D9FB180CF1FF3802D29A4282
:100DC00000F2E080C4469B1AB3FBFEF20EFB123326
:100DD00040EA034302FB04F49C4207D9FB1802F1EA
:100DE000FF3002D29C4200F2CA8002461B1B42EA3C
:100DF0000C40A5E7C1F120068B4022FA06F71F43FD
:100E00000EFA01F420FA06F32EFA06FE4FEA17490D
:100E1000234300FA01F81FFA87FCBEFBF9F01C0C13
:100E200009FB10EE44EA0E4400FB0CFEA64502FA54
:100E300001F209D93C1900F1FF3A80F09C80A645E7
:100E400040F2998002383C44A4EB0E041FFA83FE62
:100E5000B4FBF9F309FB13444EEA044403FB0CFC16
:100E6000A44508D93C1903F1FF3E80F08280A445D7
:100E70007FD9023B3C4443EA0040A4EB0C04A0FBB6
:100E800002EC64457346E14662D35FD05DB1B8EBD6
:100E9000030264EB090404FA06F622FA01F31E4386
:100EA000CC40C5E9006400214FE7B1FBF2FC010C26
:100EB00041EA0E4180B240EA01423B4638463C4698
:100EC000B846BE462026B1FBF7F1A2EB080241EA84
:100ED0000C4166E7014618E710462CE7C6F12002F0
:100EE0002EFA02F3B740B14020FA02F24FEA174E51
:100EF0000A43B3FBFEF8BCB20EFB1833110C41EAF7
:100F0000034108FB04F9B04089454FEA104380B221
:100F10003ED9791808F1FF3C01D289451FD8A1EBD1
:100F20000901B1FBFEF909FB04F80EFB191192B29D
:100F300042EA0142424529D2BA1809F1FF31C4D22E
:100F40004245C2D2A9F102013A44BEE7F0459DD222
:100F5000BEEB02036CEB070C0138E14696E7A7EB0A
:100F600009094944A8F1020CB1FBFEF909FB04F898
:100F7000DBE773467FE7504666E70846FDE63B44FD
:100F8000023A33E7ACF1020C3B441CE749469CE7CC
:100F9000A1EB0901C446B1FBFEF909FB04F8C4E763
:100FA000704700BF80B485B000AFF860B9607A6068
:100FB000FB68074A1A60BB68064A1A607B68802291
:100FC0001A6000BF1437BD465DF8047B704700BF50
:100FD000D40100207402002080B485B000AFF86016
:100FE000B9607A60FB68074A1A60BB68064A1A60F3
:100FF0007B684FF400721A6000BF1437BD465DF87D
:10100000047B7047740400201405002080B400AFF6
:10101000BFF34F8F00BF064BDB6803F4E062044967
:10102000044B1343CB60BFF34F8F00BF00BFFDE7FE
:1010300000ED00E00400FA0580B500AFFFF7E6FF21
:10104000B0B5BEB000AF09F027FB00F02FF94FF4A8
:101050007A7009F063FB00F005FD00F0CDFC00F0B4
:101060007FFB00F09FFC00F073FC00F08BF900F0B8
:1010700041FB00F07DFA00F0F5FB00F005FB00F00D
:1010800025FA00F0D1F900216D480CF08BFE02F03A
:10109000DFFE00216B480CF085FE0023C7F8F0301E
:1010A0000023C7F8F43007F1F003012118460FF0D0
:1010B0004DFA0346644A1360644BC7F8E8300023D6
:1010C000C7F8EC3007F1E8030022012118460FF0C1
:1010D00089F903465E4A13605E4BC7F8E03000238F
:1010E000C7F8E43007F1E0030022012118460FF0B1
:1010F00079F90346584A1360584B07F1C4041D465A
:101100000FCD0FC495E8070084E8070007F1C4037A
:10111000002118460FF005F90346514A1360514B60
:1011200007F1A8041D460FCD0FC495E8070084E819
:10113000070007F1A803002118460FF0F2F8034654
:10114000494A1360494B07F18C041D460FCD0FC46B
:1011500095E8070084E8070007F18C030021184692
:101160000FF0DFF80346424A1360424B07F1700468
:101170001D460FCD0FC495E8070084E8070007F16E
:101180007003002118460FF0CCF803463A4A13606A
:101190003A4B07F154041D460FCD0FC495E80700E4
:1011A00084E8070007F15403002118460FF0B9F84E
:1011B0000346334A1360334B07F138041D460FCD05
:1011C0000FC495E8070084E8070007F13803002101
:1011D00018460FF0A6F803462B4A13602B4B07F175
:1011E0001C041D460FCD0FC495E8070084E80700D6
:1011F00007F11C03002118460FF093F80346244A18
:101200001360244B3C461D460FCD0FC495E80700E4
:1012100084E807003B46002118460FF082F8034699
:101220001D4A136018221D491D480DF023FE092296
:101230001C491D480DF01EFE0FF06CF800BFFDE7C5
:10124000300F0020780F0020381100208D95000805
:1012500030110020BD95000834110020F03F010836
:101260001011002014400108141100204040010812
:10127000181100206C4001081C110020904001084A
:1012800020110020B840010824110020DC40010892
:1012900028110020004101082C11002078110020A5
:1012A0000810002084150020C00F002080B594B0E5
:1012B00000AF07F1200330220021184612F058F940
:1012C00007F10C0300221A605A609A60DA601A6112
:1012D0000023BB60294B1B6C284A43F080531364E6
:1012E000264B1B6C03F08053BB60BB6800237B6004
:1012F000234B1B68224A43F480431360204B1B6836
:1013000003F480437B607B6809233B624FF48033A6
:101310007B6201237B630223BB634FF48003FB6387
:1013200004233B64A8237B640223BB640423FB6483
:1013300007F1200318460AF0C7FC0346002B01D032
:1013400008F026FA0F23FB6002233B6100237B6138
:101350004FF4A053BB614FF48053FB6107F10C03C2
:10136000052118460AF028FF0346002B01D008F09B
:101370000FFA00BF5037BD4680BD00BF00380240A5
:101380000070004080B584B000AF3B4600221A6078
:101390005A609A60DA60214B214A1A601F4B4FF461
:1013A00080325A601D4B00229A601C4B00221A6149
:1013B0001A4B01221A76194B002283F82020174B72
:1013C0000022DA62154B174A9A62144B0022DA6047
:1013D000124B0122DA61114B002283F830200F4BAF
:1013E00001225A610D4809F0BDF90346002B01D0D6
:1013F00008F0CEF909233B6001237B600023BB602A
:101400003B461946054809F08FFB0346002B01D0E7
:1014100008F0BEF900BF1037BD4680BD880D002022
:10142000002001400100000F80B584B000AF3B46B2
:1014300000221A605A609A60DA60214B214A1A60D1
:101440001F4B4FF480325A601D4B00229A601C4B98
:1014500000221A611A4B00221A76194B002283F8D7
:101460002020174B0022DA62154B174A9A62144B60
:101470000022DA60124B0122DA61114B002283F85C
:1014800030200F4B01225A610D4809F06BF90346D9
:10149000002B01D008F07CF900233B6001237B6026
:1014A0000023BB603B461946054809F03DFB034657
:1014B000002B01D008F06CF900BF1037BD4680BD8D
:1014C000D00D0020002101400100000F80B584B044
:1014D00000AF3B4600221A605A609A60DA60214BE6
:1014E000214A1A601F4B4FF480325A601D4B002274
:1014F0009A601C4B00221A611A4B01221A76194B72
:10150000002283F82020174B0022DA62154B174A7D
:101510009A62144B0022DA60124B0122DA61114BFD
:10152000002283F830200F4B01225A610D4809F048
:1015300019F90346002B01D008F02AF901233B607A
:1015400001237B600023BB603B461946054809F038
:10155000EBFA0346002B01D008F01AF900BF103750
:10156000BD4680BD180E0020002201400100000F82
:1015700080B590B000AF07F12C0300221A605A60CA
:101580009A60DA601A610023BB623B462822002180
:10159000184611F0EDFF3A4B3A4A1A60384B0022D8
:1015A0005A60374B7F229A60354BFF22DA60344B0A
:1015B00000221A61324B00225A61314B00229A619B
:1015C0002F480BF02DF90346002B01D008F0E0F86E
:1015D000002387F82C30002387F82D30002387F86C
:1015E0002E300023BB630023FB6307F12C03002292
:1015F000194623480BF097F90346002B01D008F059
:10160000C7F8022387F82830042387F829300123FC
:1016100087F82A30192387F82B3007F12803002296
:10162000194617480BF019FA0346002B01D008F0B1
:10163000AFF800233B7000237B700023BB700023B6
:101640007B600023FB6000233B6100237B61002360
:10165000BB610023FB61012387F820304FF48073C6
:101660007B623B460022194605480BF07BFA034695
:10167000002B01D008F08CF800BF4037BD4680BD7C
:10168000600E00200028004080B500AF174B184ABC
:101690001A60164B4FF482725A60144B00229A6003
:1016A000124B0022DA60114B00221A610F4B00220C
:1016B0005A610E4B4FF400729A610C4B0022DA61B2
:1016C0000A4B00221A62094B00225A62074B002281
:1016D0009A62064B0A22DA6204480BF081FC034648
:1016E000002B01D008F054F800BF80BD800E002010
:1016F0000030014080B500AF174B184A1A60164BF6
:101700004FF482725A60144B00229A60124B0022EE
:10171000DA60114B02221A610F4B00225A610E4B04
:101720004FF400729A610C4B1822DA610A4B0022C6
:101730001A62094B00225A62074B00229A62064B3A
:101740000A22DA6204480BF04BFC0346002B01D05E
:1017500008F01EF800BF80BDD80E0020003C0040FD
:1017600080B592B000AF07F1400300221A605A60C2
:1017700007F1240300221A605A609A60DA601A6145
:101780005A619A613B1D20220021184611F0F0FE9B
:10179000324B334A1A60314B01225A602F4B0022E0
:1017A0009A602E4BD122DA602C4B00221A612B4B0F
:1017B00000225A61294B00229A6128480CF0A2FAB3
:1017C0000346002B01D007F0E3FF00233B64002316
:1017D0007B6407F14003194620480DF069F9034680
:1017E000002B01D007F0D4FF60237B620023BB6293
:1017F0000023FB6200233B6300237B630023BB6366
:101800000023FB6307F124030022194613480CF060
:1018100081FC0346002B01D007F0BAFF00237B6058
:101820000023BB600023FB6000233B6100237B613E
:101830004FF40053BB6100233B623B1D1946074830
:101840000DF0B2F90346002B01D007F0A1FF0348C9
:1018500008F08AFC00BF4837BD4680BD300F00202D
:101860000000014080B58EB000AF07F128030022D0
:101870001A605A609A60DA6007F1200300221A6049
:101880005A603B1D00221A605A609A60DA601A6141
:101890005A619A612C4B2D4A1A602B4B01225A60D7
:1018A000294B00229A60284BDC22DA60264B00226A
:1018B0001A61254B00229A6123480CF063F9034614
:1018C000002B01D007F064FF4FF48053BB6207F197
:1018D000280319461C480CF0DFFC0346002B01D0FE
:1018E00007F056FF18480CF00DFA0346002B01D004
:1018F00007F04EFF00233B6200237B6207F12003C9
:10190000194611480DF0D4F80346002B01D007F01A
:101910003FFF60237B600023BB600023FB6000234C
:101920007B613B1D0022194607480CF0F3FB034680
:10193000002B01D007F02CFF034808F015FC00BF76
:101940003837BD4680BD00BF780F0020000800403A
:1019500080B500AF114B124A1A60104B4FF4E122D0
:101960005A600E4B00229A600C4B0022DA600B4B3F
:1019700000221A61094B0C225A61084B00229A611D
:10198000064B0022DA6105480DF074F90346002B7E
:1019900001D007F0FDFE00BF80BD00BFC00F0020DA
:1019A0000010014080B500AF114B124A1A60104B75
:1019B0004FF4E1325A600E4B00229A600C4B002229
:1019C000DA600B4B00221A61094B0C225A61084B5A
:1019D00000229A61064B0022DA6105480DF04AF9AF
:1019E0000346002B01D007F0D3FE00BF80BD00BF2F
:1019F000081000200044004080B582B000AF0023F2
:101A00007B60174B1B6B164A43F400131363144B94
:101A10001B6B03F400137B607B6800233B60104B5F
:101A20001B6B0F4A43F4800313630D4B1B6B03F4D2
:101A300080033B603B6800220521102009F04AFB2F
:101A4000102009F063FB002205213A2009F042FB37
:101A50003A2009F05BFB00BF0837BD4680BD00BFE0
:101A60000038024080B58CB000AF07F11C030022A3
:101A70001A605A609A60DA601A610023BB61704B89
:101A80001B6B6F4A43F0800313636D4B1B6B03F0BA
:101A90008003BB61BB6900237B61694B1B6B684A98
:101AA00043F004031363664B1B6B03F004037B6179
:101AB0007B6900233B61624B1B6B614A43F001036E
:101AC00013635F4B1B6B03F001033B613B69002316
:101AD000FB605B4B1B6B5A4A43F002031363584B8A
:101AE0001B6B03F00203FB60FB680023BB60544BDD
:101AF0001B6B534A43F010031363514B1B6B03F0F2
:101B00001003BB60BB6800237B604D4B1B6B4C4AD2
:101B100043F0080313634A4B1B6B03F008037B601D
:101B20007B680022442147480AF0B4F800221021C3
:101B300045480AF0AFF80022012144480AF0AAF80B
:101B400000224CF6024142480AF0A4F800224FF469
:101B5000025140480AF09EF84423FB6101233B6296
:101B600000237B620023BB6207F11C031946354842
:101B700009F0DCFE1023FB6101233B6200237B6242
:101B80000023BB6207F11C0319462F4809F0CEFE63
:101B90000123FB6101233B6200237B620023BB62C4
:101BA00007F11C031946294809F0C0FE4CF6024310
:101BB000FB6101233B6200237B620023BB6207F1D0
:101BC0001C031946224809F0B1FE4FF40053FB6193
:101BD00000233B6200237B6207F11C0319461C486B
:101BE00009F0A4FE4FF40063FB6100233B62002375
:101BF0007B6207F11C031946164809F097FE4FF463
:101C00000253FB6101233B6200237B620023BB6222
:101C100007F11C0319460F4809F088FE4FF40073C2
:101C2000FB6100233B6200237B6207F11C03194622
:101C3000044809F07BFE00BF3037BD4680BD00BFC1
:101C40000038024000080240000002400004024048
:101C500000100240000C024090B585B000AF044671
:101C6000084611461A462346FB710346BB710B46D4
:101C70007B7113463B71082011F016FB0346FB6095
:101C80003B79002B25D12B4B01221A70FB685A227D
:101C90001A70FB680133A5221A70FB680233052213
:101CA0001A70FB68033382221A70FB680433FA79D6
:101CB0001A70FB680533BA791A70FB680633002284
:101CC0001A707A79FB6807331B498A5C1A70FB68C3
:101CD0002CE03B79012B25D1164B00221A70FB68B2
:101CE0005A221A70FB680133A5221A70FB6802336E
:101CF00005221A70FB68033382221A70FB680433D2
:101D0000FA791A70FB680533BA791A70FB680633E2
:101D100000221A707A79FB68073308498A5C1A70C6
:101D2000FB6803E0F86811F0C7FA0023184614377F
:101D3000BD4690BD02160020200100203801002081
:101D400080B584B000AF0346FB710B46BB711346F0
:101D50007B7107F1080300221A605A605A233B7214
:101D6000A5237B720523BB728223FB72FB793B7335
:101D7000BB797B730023BB737B79074AD35CFB730E
:101D800007F108010123082204480CF0C3FF00BF3B
:101D90001037BD4680BD00BF38010020C00F0020B5
:101DA00080B584B000AF0346FB710B46BB71134690
:101DB0007B71082011F078FA0346FB60FB79102B49
:101DC00040F0FE81BB79002B00F0FA81BB79013B2A
:101DD000212B00F2F58101A252F823F0651E0008C4
:101DE000971E0008C31E0008EF1E00081B1F0008F6
:101DF000471F0008731F00089F1F0008C12100082B
:101E0000C1210008C1210008C1210008C12100082A
:101E1000C1210008C1210008C1210008C12100081A
:101E2000CB1F0008F71F0008232000084F200008E0
:101E30007B200008A7200008D3200008FF2000080E
:101E4000C1210008C1210008C1210008C1210008EA
:101E5000C1210008C12100082B21000857210008DA
:101E600095210008C74B1B78184600F0B5F97B791F
:101E7000184600F0F5F932200EF09FFA7B79002227
:101E800001211020FFF7E8FE014601230822BE4889
:101E90000CF040FF94E1BB4B1B78184600F09CF916
:101EA0007B79184600F0DCF97B79012202211020B1
:101EB000FFF7D2FE014601230822B3480CF02AFFA7
:101EC0007EE1B04B1B78184600F086F97B79184606
:101ED00000F0C6F97B79022203211020FFF7BCFE37
:101EE000014601230822A8480CF014FF68E1A54B25
:101EF0001B78184600F070F97B79184600F0B0F9AD
:101F00007B79032204211020FFF7A6FE014601235E
:101F100008229D480CF0FEFE52E19A4B1B781846B1
:101F200000F05AF97B79184600F09AF97B7904227F
:101F300005211020FFF790FE014601230822924858
:101F40000CF0E8FE3CE18F4B1B78184600F044F99A
:101F50007B79184600F084F97B7905220621102050
:101F6000FFF77AFE01460123082287480CF0D2FED3
:101F700026E1844B1B78184600F02EF97B79184631
:101F800000F06EF97B79062207211020FFF764FE2E
:101F90000146012308227C480CF0BCFE10E1794B7D
:101FA0001B78184600F018F97B79184600F058F9AC
:101FB0007B79072208211020FFF74EFE01460123FE
:101FC000082271480CF0A6FEFAE0704B1B78184608
:101FD00000F002F97B79184600F042F97B790B2278
:101FE00012211020FFF738FE01460123082266481F
:101FF0000CF090FEE4E0654B1B78184600F0ECF81E
:102000007B79184600F02CF97B790C2213211020E3
:10201000FFF722FE0146012308225B480CF07AFEFE
:10202000CEE05A4B1B78184600F0D6F87B7918465C
:1020300000F016F97B790D2214211020FFF70CFE19
:1020400001460123082250480CF064FEB8E04F4BD3
:102050001B78184600F0C0F87B79184600F000F9AC
:102060007B790E2215211020FFF7F6FD0146012392
:10207000082245480CF04EFEA2E0444B1B7818465F
:1020800000F0AAF87B79184600F0EAF87B790F2275
:1020900016211020FFF7E0FD0146012308223A48EF
:1020A0000CF038FE8CE0394B1B78184600F094F8A1
:1020B0007B79184600F0D4F87B7910221721102084
:1020C000FFF7CAFD0146012308222F480CF022FE2B
:1020D00076E02E4B1B78184600F07EF87B79184688
:1020E00000F0BEF87B79112218211020FFF7B4FD13
:1020F00001460123082224480CF00CFE60E0234B2B
:102100001B78184600F068F87B79184600F0A8F8AC
:102110007B79122219211020FFF79EFD0146012331
:10212000082219480CF0F6FD4AE0194B1B781846B6
:1021300000F052F87B79184600F092F87B79132270
:1021400020211020FFF788FD0146012308220E48B8
:102150000CF0E0FD34E00E4B1B78184600F03CF824
:102160007B79184600F07CF87B791422212110201D
:10217000FFF772FD01460123082203480CF0CAFD57
:102180001EE000BF9D150020C00F00209E150020FE
:102190009F1500200E4B1B78184600F01DF87B7928
:1021A000184600F05DF87B79152222211020FFF7F8
:1021B00053FD01460123082206480CF0ABFD00BF89
:1021C000F86811F079F800BF18461037BD4680BD99
:1021D0009F150020C00F002080B582B000AF78604E
:1021E0001E4A7B6813601D4B1B68092B03D01B4BD9
:1021F0001B680A2B04D1194B1B68184A136020E096
:10220000164B1B68082B05DC144B1B68013B134A5B
:10221000136016E0114B1B680B2B03DC0F4B1B6884
:10222000132B05DC0D4B1B68073B0C4A136008E0C1
:102230000A4B1B68132B04DD084B1B68063B074A3F
:1022400013607B68DBB2054A1268D2B219461020CF
:10225000FFF776FD00BF0837BD4680BD7017002030
:1022600080B582B000AF0346FB7132200EF0A5F8B6
:10227000FB79092210211020FFF7EEFC0146012313
:1022800008220F480CF046FDFB7908220921102096
:10229000FFF7E2FC01460123082209480CF03AFD51
:1022A000FB790A2211211020FFF7D6FC01460123F9
:1022B000082203480CF02EFD00BF0837BD4680BD44
:1022C000C00F002080B584B000AF03460A46FB7102
:1022D0001346BB710B4A07F1080392E8030083E839
:1022E0000300FB793F33DBB27B73BB79FB7307F1F0
:1022F00008010123082204480CF00CFD00BF103730
:10230000BD4680BD1C410108C00F002080B586B0CD
:1023100000AF03460A46FB711346BB80114A07F122
:102320000C0392E8030083E803000023FB750023FD
:10233000BB75BB88BB75BB881B0A9BB2FB75FB7961
:102340003F33DBB27B74FB7DBB74BB7DFB7407F159
:102350000C010123082204480CF0DCFC00BF1837F4
:10236000BD4680BD1C410108C00F002080B584B06F
:1023700000AF03460A46FB711346BB710C4A07F1D6
:10238000080392E8030083E80300FB793F33DBB2E4
:102390007B73FF23BB73BB79FB7307F10801012338
:1023A000082204480CF0B6FC00BF1037BD4680BDC3
:1023B0001C410108C00F002080B584B000AF034667
:1023C000FB718D4B5B79BC2B1BD18C4B1B78012B8C
:1023D00017D132200DF0F1FF894B00221A70894B82
:1023E00000221A70884B00221A70884B01221A7042
:1023F000874B00221A70874B00221A70864B0122ED
:102400001A707D4B1B7A6A2B40F03D817B4B1B7809
:10241000022B2DD132200DF0D0FF804B01221A70FB
:10242000774B00221A70774B01221A70764B0022EC
:102430001A70774B00221A70744B00221A70754B79
:1024400000221A70764B00221A70764B1B681846D1
:10245000FEF760F802460B460A209FED5F3B9FEDBA
:10246000602B9FED5F1B43EC102B01F075FB0AE125
:10247000624B1B78032B52D132200DF09EFF674B2D
:1024800001221A705E4B01221A705E4B00221A70F4
:102490005E4B00221A705E4B00221A705A4B0022CB
:1024A0001A705C4B00221A705F4B01221A705F4B4E
:1024B0001B78042B16D95D4B1B780B2B12D85C4B69
:1024C0001B681846FEF726F802460B4605209FEDCE
:1024D000423B9FED452B9FED441B43EC102B01F03D
:1024E0003BFBD0E0514B1B780B2B40F2CC804F4B89
:1024F0001B781E2B00F2C7804D4B1B681846FEF759
:1025000009F802460B4605209FED333B9FED382B23
:102510009FED371B43EC102B01F01EFBB3E0374B54
:102520001B78042B1ED132200DF047FF3B4B0122BC
:102530001A70334B00221A70334B00221A70334B3F
:1025400000221A70324B01221A702E4B00221A7090
:10255000304B00221A70374B01221A70364B012281
:102560001A7090E0254B1B78052B6DD132200DF0B1
:1025700024FF2A4B01221A70224B00221A70224B90
:1025800001221A70214B00221A70214B00221A706E
:102590001B4B00221A701F4B00221A70274B01227E
:1025A0001A70274B00221A70224B01221A70254BF9
:1025B0001B781846FDF79EFF02460B4605209FED4F
:1025C000063B9FED092B9FED081B43EC102B01F000
:1025D000C3FA58E0AFF300800000000000000000E4
:1025E000000000000000F03F9A9999999999B93F2D
:1025F000000000000000E03F84150020BB15002013
:10260000B9150020B8150020B7150020B615002018
:10261000B5150020BA150020C2150020FD110020BC
:10262000C31500200C120020C41500203C0000201F
:1026300038000020D1150020C5150020C615002047
:10264000CC150020B4150020494B1B78062B1AD15D
:1026500032200DF0B2FE474B01221A70464B002289
:102660001A70464B00221A70454B00221A70454BD7
:1026700000221A70444B00221A70444B01221A7037
:10268000434B01221A70434B1B7A692B20D1002245
:102690004FF40041404809F0FDFA00224FF4804118
:1026A0003D4809F0F7FA384B00221A70324B0022ED
:1026B0001A70324B00221A70314B01221A70314BC2
:1026C00000221A70314B00221A70344B01221A700A
:1026D000304B5B79A42B40F06F8132200DF06DFE02
:1026E000294B1B78002B5FD02D4B1B78042B16D960
:1026F0002B4B1B780B2B12D82A4B1B681846FDF767
:1027000009FF02460B4605209FED133B9FED142B5E
:102710009FED131B43EC102B01F01EFA5AE0204BE7
:102720001B780B2B56D91E4B1B781E2B52D81D4BDA
:102730001B681846FDF7EEFE02460B4605209FED8E
:10274000063B9FED092B9FED081B43EC102B01F07E
:1027500003FA3FE0AFF3008000000000000000003B
:102760009A9999999999B93F000000000000E03FBB
:10277000BB150020FD110020B8150020B715002062
:10278000B6150020B5150020B9150020BA15002097
:10279000C71500208415002000100240C21500203B
:1027A0003C00002038000020AB4B1B78002B11D0E0
:1027B000AA4B1B781846FDF79DFE02460B460520E6
:1027C0009FED9F3B9FEDA02B9FED9F1B43EC102B9C
:1027D00001F0C2F9A24B1A88A24B1A80A24B1A78B8
:1027E000A24B1A70A24B1B781A46A24B1A60A24B3E
:1027F0001B68A24A1360A24B1B68A24A1360A24B3B
:102800001A78A24B1A70A24B1B78013BDAB2A14B8B
:102810001A70A14B1A78914B1A70A04B1A789F4BE3
:102820001A709F4B1A789E4B1A709E4B1A789D4BCC
:102830001A709D4B1A789C4B1A709C4B1A789B4BC4
:102840001A709B4B1A789A4B1A709A4B1A78994BBC
:102850001A70994B1A78984B1A70984B1A78974BB4
:102860001A70974B1A78964B1A70964B01221A7071
:10287000954B01221A70954B00221A70944B00223E
:102880001A70944B00221A70934B00221A70934BCB
:1028900000221A70924B00221A70924B00221A707A
:1028A000914B00221A70914B00221A70904B00221B
:1028B0001A70904B00221A708F4B00221A708F4BA7
:1028C00000221A708E4B00221A708E4B00221A7052
:1028D0008D4B00221A708D4B00221A708C4B0022F7
:1028E0001A708C4B00221A708B4B00221A708B4B83
:1028F00000221A708A4B1978894B1B78013BDAB297
:1029000001231020FFF7A8F901460123082285487A
:102910000CF000FA844B1978834B1B78073BDAB232
:1029200001231020FFF798F90146012308227D4872
:102930000CF0F0F97D4B19787C4B1B780D3BDAB22B
:1029400001231020FFF788F901460123082275486A
:102950000CF0E0F9764B1978754B1B781C3BDAB21A
:1029600001231020FFF778F90146012308226D4862
:102970000CF0D0F96F4B19786E4B1B785F33DAB2DD
:1029800001231020FFF768F901460123082265485A
:102990000CF0C0F90120FFF763FC0023FB6007E0A7
:1029A000654AFB68134400221A70FB680133FB6020
:1029B000FB68082BF4DD40E05F4B5B79C32B03D051
:1029C0005D4B5B79F12B01D1FEF720FB5A4B5B7914
:1029D000E22B32D13B4B01221A70584B01221A7064
:1029E000574B00221A701C4B00221A70554B0022C4
:1029F0001A70554B00221A70544B00221A70544B17
:102A000000221A70534B01221A70324B00221A70A6
:102A1000374B01221A70114B1B781846FDF76AFDDF
:102A200002460B4600209FED0A3B9FED072B9FEDD2
:102A3000061B43EC102B01F08FF80023BB6093E0E2
:102A400000000000000000009A9999999999B93FF7
:102A5000333333333333C33FB7150020B41500206D
:102A60002400002034000020270000203C0000202B
:102A700026000020380000201C0000202C00002030
:102A80002000002030000020A9150020B2150020F1
:102A9000B0150020B3150020B11500204000002023
:102AA000E415002041000020E51500204200002030
:102AB0003D000020430000203E0000204400002094
:102AC0003F000020FD110020C1150020CA15002084
:102AD000CB150020CC150020C8150020C9150020FA
:102AE000CD150020CE150020CF150020D0150020D8
:102AF000D1150020D2150020F7150020F815002070
:102B0000F9150020FA150020FB150020FC15002007
:102B1000FD150020FE150020FF15002000160020E6
:102B20009D150020C00F00209E1500209F1500203D
:102B3000A0150020A115002084150020BC15002040
:102B4000B8150020B6150020B5150020B9150020D5
:102B5000BA150020C6150020074ABB68134400229E
:102B60001A70BB680133BB60BB68082BF4DD00BF83
:102B700000BF1037BD4680BD8415002080B400AF73
:102B8000364B1B7807EE903AB8EE677ADFED346A81
:102B9000C6EE877A334BC3ED007A334B1B6807EEE2
:102BA000903AF8EEE76A304B1B6807EE903AB8EEC1
:102BB000E77A2E4B1B6807EE903AF8EEE77A77EE4D
:102BC000277A86EEA77A274BD3ED007A67EE277A2D
:102BD000274BC3ED007A234B93ED007A244BD3EDC2
:102BE000007A77EE677A234BC3ED007A204BD3ED62
:102BF000007A9FED217A67EE877AFDEEE77A17EE8D
:102C0000902A1E4B1A601B4BD3ED007A9FED1A7A67
:102C100067EE877AFDEEE77A17EE902A184B1A6076
:102C2000184B1B7807EE903AF8EE677ADFED166ADC
:102C300087EEA67A114B1B6807EE903AF8EEE77A1A
:102C400067EE277AFDEEE77A17EE902A0F4B1A60AF
:102C500000BFBD465DF8047B704700BF3C0000200C
:102C600000007042DC1100202C0000203000002009
:102C7000E0110020E411002000007A447C150020BF
:102C800080150020B21500200000C842500100202D
:102C900080B500AF3F4B1B8819460120FFF736FB7C
:102CA0003D4B1B7819460220FFF70CFB3B4B1B7872
:102CB00019460320FFF706FB394B1B781946052000
:102CC000FFF700FB374B1B68DBB219460620FFF706
:102CD000F9FA354B93F90030DBB219460720FFF7BC
:102CE00045FB324B1B7819460820FFF7EBFA304BB7
:102CF0001B7819460920FFF7E5FA2E4B1B78194679
:102D00001420FFF7DFFA2C4B1B7819461520FFF72C
:102D1000D9FA2A4B1B7819461620FFF7D3FA284B0D
:102D20001B7819461720FFF7CDFA264B1B7819465A
:102D30001820FFF7C7FA244B1B7819461920FFF714
:102D4000C1FA224B1B7819461A20FFF7BBFA204B19
:102D50001B7819462120FFF7B5FA1E4B1B78194640
:102D60002220FFF7AFFA1C4B1B7819462320FFF7F0
:102D7000A9FA1A4B1B68DBB219462420FFF7A2FA06
:102D8000174B1B68DBB219462520FFF79BFA00BFE3
:102D900080BD00BF24000020260000202700002066
:102DA000A9150020AC15002028000020B015002037
:102DB000B115002040000020E41500204100002053
:102DC000E5150020420000203D00002043000020C7
:102DD0003E000020440000203F0000201C00002096
:102DE0002000002080B584B000AF78600A4A07F167
:102DF000080392E8030083E803007B68DBB2FB73FF
:102E000007F108010123082204480BF083FF00BFEB
:102E10001037BD4680BD00BF30410108C00F002003
:102E200080B584B000AF0346FB710A4A07F108037E
:102E300092E8030083E80300FB79FB7307F10801C4
:102E40000123082204480BF065FF00BF1037BD4680
:102E500080BD00BF38410108C00F002080B584B09C
:102E600000AF0346FB710A4A07F1080392E803002A
:102E700083E80300FB79FB7307F1080101230822B3
:102E800004480BF047FF00BF1037BD4680BD00BFB0
:102E900040410108C00F002080B584B000AF034658
:102EA000FB710A4A07F1080392E8030083E8030074
:102EB000FB79FB7307F108010123082204480BF09A
:102EC00029FF00BF1037BD4680BD00BF4841010843
:102ED000C00F002080B584B000AF0346FB710A4AE2
:102EE00007F1080392E8030083E80300FB79FB7312
:102EF00007F108010123082204480BF00BFF00BF73
:102F00001037BD4680BD00BF50410108C00F0020F2
:102F100080B584B000AF0346FB710A4A07F108038D
:102F200092E8030083E80300FB79FB7307F10801D3
:102F30000123082204480BF0EDFE00BF1037BD4608
:102F400080BD00BF58410108C00F002080B584B08B
:102F500000AF0346FB710A4A07F1080392E8030039
:102F600083E80300FB79FB7307F1080101230822C2
:102F700004480BF0CFFE00BF1037BD4680BD00BF38
:102F800060410108C00F002080B485B000AF87ED1C
:102F9000010A1E4B1B681E4A9B0013447A681A6084
:102FA0001A4B1B68591C1B4B83FB01235A10CB1770
:102FB000D21A13469B001344CA1A144B1A604FF0DE
:102FC0000003FB600023BB600EE0114ABB689B005E
:102FD0001344D3ED007A97ED037A77EE277AC7EDA5
:102FE000037ABB680133BB60BB68042BEDDD97ED52
:102FF000037AF1EE046AC7EE267A074BC3ED007A36
:1030000000BF1437BD465DF8047B7047C81100202F
:10301000B411002067666666CC11002080B584B0CC
:1030200000AF0346FB710A4A07F1080392E8030068
:1030300083E80300FB79FB7307F1080101230822F1
:1030400004480BF067FE00BF1037BD4680BD00BFCF
:1030500068410108C00F002080B584B000AF254B47
:10306000D3ED007A9FED247A67EE877A17EE900A07
:10307000FDF762FA02460B46C7E902231F4B1B8885
:103080001846FDF747FAD7E90223FDF7D7FB0246BA
:103090000B46104619464FF000024FF08043FDF7F3
:1030A000CDFB02460B46104619464FF00002144B6A
:1030B000FDF79AFA02460B46C7E900234FF00002DB
:1030C000104BD7E90001FDF7D9F802460B46104630
:1030D00019464FF000020A4BFDF7D0F802460B46A6
:1030E00043EC172BB0EE470AF0EE670A1037BD46E7
:1030F00080BD00BFE011002000007A4434000020B1
:10310000000059400000F03F80B586B000AF034694
:10311000FB80104A07F10C0392E8030083E80300E8
:103120000023FB750023BB75FB88BB75FB881B0A5E
:103130009BB2FB75FB7DBB74BB7DFB7407F10C017F
:103140000123082204480BF0E5FD00BF1837BD46F7
:1031500080BD00BF70410108C00F002080B588B05D
:1031600000AF324A07F1100392E8030083E803003E
:103170000023FB770023BB770023BB612C4B1B781C
:1031800007EE903AB8EEE77A2A4BD3ED007A27EEB5
:10319000277ADFED296AC7EE267A284BC3ED007A3D
:1031A000264BD3ED007A9FED267A67EE877AFDEE07
:1031B000E77A17EE903ABB610023FB6007F10C033E
:1031C000BA692049184610F0B1F907F10C03194605
:1031D0001D4810F0ABF93B7B3B717B7B7B71BB7B6C
:1031E000BB71FB7BFB7100233B723B1D1022002156
:1031F000184610F091F903469AB2144B1A80134BFB
:103200001B88BB77114B1B881B0A9BB2FB77FB7F8C
:10321000BB75BB7FFB7507F11001012308220C4829
:103220000BF078FD00BF2037BD4680BD7841010816
:103230003C0000200012002000007A44E01500202D
:103240000000C8422441010828410108E21600207C
:10325000C00F002080B584B000AF0346FB710A4A5E
:1032600007F1080392E8030083E80300FB79FB738E
:1032700007F108010123082204480BF04BFD00BFB1
:103280001037BD4680BD00BF80410108C00F00203F
:1032900080B584B000AF0346FB710A4A07F108030A
:1032A00092E8030083E80300FB79FB7307F1080150
:1032B0000123082204480BF02DFD00BF1037BD4646
:1032C00080BD00BF88410108C00F002080B584B0D8
:1032D00000AF0346FB710A4A07F1080392E80300B6
:1032E00083E80300FB79FB7307F10801012308223F
:1032F00004480BF00FFD00BF1037BD4680BD00BF76
:1033000090410108C00F002080B584B000AF034693
:10331000FB710A4A07F1080392E8030083E80300FF
:10332000FB79FB7307F108010123082204480BF025
:10333000F1FC00BF1037BD4680BD00BF98410108B9
:10334000C00F002080B500AF094B1B684FF4FA7224
:103350005A634FF4FA700DF030F8054B1B680022E9
:103360005A634FF4FA700DF028F800BF80BD00BF1B
:10337000780F0020F8B500AF584B00221A70584B58
:1033800001221A70574B1B68574A12789B1A012B5F
:1033900054DC544B1B68544A12789B1A002B4DDBAB
:1033A0004F4B00221A70504B1B781A464D4B1B682E
:1033B0009A421EDD4C4B1B781A464A4B1B689A42B8
:1033C0003CD04A4BD3E900454FF00002484B204621
:1033D0002946FCF751FF02460B464449C1E9002348
:1033E000444B1E6820462946FDF7D6FB034673630F
:1033F00024E03D4B1B781A463A4B1B689A421DDA73
:10340000394B1B781A46374B1B689A4216D0374BFC
:10341000D3E900454FF00002354B20462946FCF722
:103420002DFF02460B463149C1E90023314B1E688E
:1034300020462946FDF7B0FB0346736301224FF493
:1034400000412D4808F026FC01224FF480412A4813
:1034500008F020FC294B1B780133DAB2274B1A7095
:10346000274B1B780133DAB2254B1A70254B1B68AA
:1034700018460CF0A2FF1A4B00221A70224B1A7841
:10348000194B1A70214B1A78214B1A70134B0122D9
:103490001A7000224FF40041174808F0FBFB00228D
:1034A0004FF48041144808F0F5FB1A4B4FF000022E
:1034B0001A60194B00221A70184B1B680133174A07
:1034C0001360174B1B6818460CF077FF0F4B1B78E7
:1034D0001846FFF7FBFE00BFF8BD00BFFC1100203F
:1034E000FE1100200C1200200812002018120020EB
:1034F0000000F03F300F002000100240BF150020F8
:10350000C01500207C150020E0160020E1160020E8
:1035100074170020180000206C150020781500207A
:103520008015002080B500AF2F4B1B781A462F4B1B
:103530001A602F4B00221A7001224FF400412D48CF
:1035400008F0A8FB01224FF480412A4808F0A2FBB2
:10355000294B1A68294B1B68D31A18460CF02DFF0B
:10356000274B01221A70274B1A78274B1A70274BCA
:103570001B78002B0AD000224FF400411D4808F0B0
:1035800089FB1E4B1B6818460CF017FF204B1A785E
:10359000204B1A70164B01221A7000224FF4004182
:1035A000144808F077FB00224FF48041114808F0DE
:1035B00071FB194B01221A70184B1B680133174A13
:1035C0001360174B1B6818460CF0F7FE124B0022D5
:1035D0001A700F4B1B781846FFF778FE084B002235
:1035E0001A7000BF80BD00BF2600002038000020F8
:1035F000FC110020001002407C150020500100202A
:10360000FE110020E016002008120020B215002054
:10361000E116002074170020011600207815002004
:1036200080150020F0B583B000AF4F4B00221A7018
:103630004E4B01221A704E4B00221A704D4B1B68E4
:103640004D4A12789B1A012B54DC4A4B1B684A4A9C
:1036500012789B1A002B4DDB444B00221A70464B0C
:103660001B781A46434B1B689A421EDD424B1B785F
:103670001A46404B1B689A423CD0404BD3E9004568
:103680004FF000023E4B20462946FCF7F5FD02466E
:103690000B463A49C1E900233A4B1E6820462946A9
:1036A000FDF77AFA0346736324E0334B1B781A461E
:1036B000304B1B689A421DDA2F4B1B781A462D4B54
:1036C0001B689A4216D02D4BD3E900454FF00002FB
:1036D0002B4B20462946FCF7D1FD02460B462749D5
:1036E000C1E90023274B1E6820462946FDF754FAFE
:1036F0000346736301224FF40041234808F0CAFADD
:1037000001224FF48041204808F0C4FA1F4B1B6887
:1037100018460CF052FE154B00221A701C4BD3EDCC
:10372000007AFCEEE77AC7ED017A3B79DAB2124B08
:103730001A70184B1B78002B0AD000224FF400415E
:10374000114808F0A7FA144B1B6818460CF035FE18
:10375000124B1A78124B1A7000F024F80123184605
:103760000C37BD46F0BD00BFFC110020FE1100204B
:10377000BE1500200C120020081200201812002094
:103780000000F03F300F0020001002407C150020A8
:10379000EC110020B215002050010020E11600209D
:1037A0007417002080B500AF154B01221A7000225B
:1037B0004FF40041134808F06DFA00224FF48041A5
:1037C000104808F067FA104B01221A700F4B1B6863
:1037D00001330E4A13600E4B00221A700D4B1B680A
:1037E00018460CF0EAFD0A4B01221A700A4B4FF002
:1037F00000021A60094B00221A7000BF80BD00BF92
:10380000FC11002000100240011600207815002055
:10381000BD15002080150020180000206C15002028
:1038200080B500AF0C4B01221A700B4B1B78002B9C
:1038300004D00A4B00221A70FFF7F4FE064B1B78E7
:1038400083F00103DBB2002B04D0044B01221A7079
:1038500000F006F800BF80BDBD150020BE15002099
:1038600080B500AF334B93F900301A46324B1A60E3
:10387000314B1B68C3F16402304B1B689A422BDC4E
:103880002F4B00221A7001224FF400412D4808F0FE
:1038900001FA01224FF480412A4808F0FBF92A4B33
:1038A00001221A70294B00221A70294B1B78002B19
:1038B0000AD000224FF40041224808F0EBF9254BD2
:1038C0001B6818460CF079FD234B1A78234B1A70AD
:1038D000234B4FF000021A601F4B1A78214B1B78C4
:1038E0009A4224D9164B01221A7000224FF400414B
:1038F000144808F0CFF900224FF48041114808F035
:10390000C9F9194B01221A70184B1B680133174A69
:103910001360C8200CF051FD134B00221A700E4B9F
:103920001B781846FFF7D2FC074B00221A7000BF25
:1039300080BD00BF28000020AC150020F011002041
:10394000FC11002000100240FE110020081200208F
:10395000B215002050010020E1160020741700204D
:1039600000120020B4150020011600207815002058
:1039700080B584B000AF534B32221A70524B0022F4
:103980001A70524B1B78012B40F09780504B00224D
:103990001A7001224FF400414E4808F07BF90122D1
:1039A0004FF480414B4808F075F94B4B1B6861227E
:1039B0005A6342F210700CF000FD484B01221A705D
:1039C000474BD3ED007AFCEEE77AC7ED017A3B79FD
:1039D000DAB2444B1A70434B00221A70424B1A78E9
:1039E000424B1A70424B4FF000021A60414B1A884A
:1039F000414B1A80414B01221A70354B01221A703B
:103A000000224FF40041334808F044F900224FF4FB
:103A10008041304808F03EF92F4B1B684B225A6317
:103A2000374B1B680133364A136040F6AC500CF03C
:103A3000C4FC324B00221A702B4B1B781846FFF740
:103A400045FC264B00221A70204B02221A702D4B87
:103A50001A78254B1B78B2FBF3F3DBB207EE903AF2
:103A6000F8EEE77AC7ED037A264B1B7807EE903A1B
:103A7000B8EEE77AD7ED036AC6EE877A9FED227A31
:103A800067EE877A214BC3ED007AD7ED037AB2EE69
:103A9000047AF4EEC77AF1EE10FA0EDB1B4BD3ED8D
:103AA000007AB2EE0E7AF4EEC77AF1EE10FA04DB89
:103AB000164B1B6807EE903AFFE7B0EE670A103727
:103AC000BD4680BDB41500203C000020BC15002080
:103AD000FC11002000100240300F0020FE110020D9
:103AE000E811002008120020E116002074170020C1
:103AF000001200209C1100207617002001160020E3
:103B000078150020E01600200000C842DC150020D7
:103B100080B500AF0A4B01221A700A4B1A780A4B83
:103B20001A700A4B1A780A4B1A700A4B01221A7043
:103B3000064B1B781846FFF7C9FB00BF80BD00BFCE
:103B4000FC110020E016002008120020E1160020E1
:103B500074170020B615002080B58CB002AF87ED39
:103B6000080B87ED061B87ED042B87ED023B786081
:103B7000D7E90801FCF7E8FF03461846FCF7CAFC42
:103B800002460B461849C1E9002300230193012393
:103B9000009397ED022B97ED041B97ED060B124B4C
:103BA000124A1349134805F033FE0121114805F06C
:103BB00065FF7B6819460F4806F0D4F89FED061B99
:103BC0009FED070B0B4805F077FF00BF2837BD4678
:103BD00080BD00BFAFF30080000000000000644023
:103BE0000000000000C052402012002018120020E7
:103BF00010120020180D002080B584B000AF8F4B4C
:103C00001B785A2B40F015818C4B5B78A52B40F02C
:103C100010818A4BDB78832B40F00B81874B1B791B
:103C2000102B40F00681854B5B79952B40F001818C
:103C3000824B1B7AFF2B25D1804B5B7AFF2B21D146
:103C40007F4B00221A707E4B00225A707C4B002260
:103C50009A707A4BDB7903F00F03DAB2784BDA70A3
:103C6000774B01221A710023FB6007E0734AFB685F
:103C7000134400221A70FB680133FB60FB680B2BB6
:103C8000F4DD94E06D4B5B7AFF2B29D16B4B9B7A73
:103C9000FF2B25D16A4B00221A70694B00225A7003
:103CA000664BDB7903F00F03DAB2654B9A70634B16
:103CB0001B7A03F00F03DAB2614BDA70604B022219
:103CC0001A710023BB6007E05C4ABB681344002202
:103CD0001A70BB680133BB60BB680B2BF4DD66E078
:103CE000564B9B7AFF2B2DD1544BDB7AFF2B29D1DE
:103CF000534B00221A70514BDB7903F00F03DAB2F9
:103D00004F4B5A704D4B1B7A03F00F03DAB24C4BFA
:103D10009A704A4B5B7A03F00F03DAB2484BDA70C1
:103D2000474B03221A7100237B6007E0434A7B68FC
:103D3000134400221A707B6801337B607B680B2B75
:103D4000F4DD34E03D4BDB7AFF2B30D13B4B1B7B6A
:103D5000FF2B2CD1394BDB7903F00F03DAB2384B50
:103D60001A70364B1B7A03F00F03DAB2344B5A70D9
:103D7000324B5B7A03F00F03DAB2314B9A702F4B60
:103D80009B7A03F00F03DAB22D4BDA702C4B04222E
:103D90001A7100233B6007E0284A3B681344002265
:103DA0001A703B6801333B603B680B2BF4DD254800
:103DB0000BF086F8224B1B781A465201D21A920059
:103DC0001344DB009AB21E4B5B78194689000B4402
:103DD00019468800194603460B449B009BB21344C6
:103DE0009AB2174B9B78194689000B445B009BB233
:103DF00013449BB2124AD27813449AB2124B1A80DF
:103E0000114B1A88114B1A800F4B1B88132B0CD99E
:103E10000D4B1B8840F2DC52934206D80A4B1B889C
:103E200019460120FEF772FA03E0074B1A88064B89
:103E30001A8000BF1037BD4680BD00BF901500201E
:103E4000A4150020C00F0020240000203400002012
:103E500080B500AF024809F0C3F800BF80BD00BFC5
:103E6000D80E002080B584B000AF24233B723B1DE8
:103E700000210A461A800A469A700023FB6000223D
:103E800010211B4807F006FF07F108014FF0FF3330
:103E90000122184809F02DF9391D4FF0FF33032294
:103EA000144809F06AFA01221021114807F0F2FEC5
:103EB0003B791A047B791B021343BA791343FB60E5
:103EC000FB686FF07F42934201D101230CE0FB6855
:103ED00003F40003002B03D0FB6843F07F43FB6037
:103EE000054AFB681360002318461037BD4680BDA5
:103EF00000000240D80E0020D011002080B588B00C
:103F000000AF274A07F1100392E8030083E803009B
:103F10000023FB770023BB770023BB61214BD3ED4C
:103F2000007AFDEEE77A17EE903ABB610023FB6062
:103F300007F10C03BA691C4918460FF0F7FA07F1AC
:103F40000C03194619480FF0F1FA3B7B3B717B7B60
:103F50007B71BB7BBB71FB7BFB7100233B723B1D09
:103F60001022002118460FF0D7FA03469AB2104BE0
:103F70001A800F4B1B88BB770D4B1B881B0A9BB20B
:103F8000FB77FB7FBB75BB7FFB7507F1100101233E
:103F9000082208480AF0BEFE00BF2037BD4680BD9B
:103FA00058410108701500202441010828410108EA
:103FB000E2160020C00F002080B483B000AF78600C
:103FC0007B6807EE903AB8EE677ADFED196AC7EEC4
:103FD000267A9FED187A67EE877A174BC3ED007A41
:103FE0007B6807EE903AB8EE677ADFED116AC7EEAC
:103FF000267A9FED127A67EE877A114BC3ED007A2D
:104000000F4BD3ED007A9FED0D7AF4EEC77AF1EE07
:1040100010FA02DB0A4B0B4A1A60094B1B6807EEC9
:10402000903AB0EE670A0C37BD465DF8047B7047E6
:10403000B0DEBD4A0000C8427415002000007A447A
:104040007015002000007A4480B582B000AF78601F
:104050000B46FB70FB789AB240F24C4379680348F8
:1040600009F047F800BF0837BD4680BD800E00202C
:1040700080B582B000AF786039603B689AB240F298
:104080004C437968034809F078F900BF0837BD460A
:1040900080BD00BF800E002080B588B000AFF86002
:1040A0007A603B600B46FB72FB681A02FB7A134492
:1040B000FB6103233B75FB691B0CDBB27B75FB6962
:1040C0001B0ADBB2BB75FB69DBB2FB750022012169
:1040D0000A4807F0DFFD07F1140304211846FFF733
:1040E000B3FF79683868FFF7C3FF01220121034855
:1040F00007F0D0FD00BF2037BD4680BD0004024060
:1041000080B58AB000AFF8607A603B600B46FB7206
:10411000FB681A02FB7A13443B627B685B00FB611D
:10412000F8690FF0C1F80346BB61BB69002B45D0AD
:1041300003233B743B6A1B0CDBB27B743B6A1B0A98
:10414000DBB2BB743B6ADBB2FB74002201211D4869
:1041500007F0A0FD07F1100304211846FFF774FFD4
:10416000F969B869FFF784FF01220121154807F0BA
:1041700091FD00237B6219E07B6A5B00BA691344FE
:104180001B781BB21B021AB27B6A5B000133B96950
:104190000B441B781BB2134319B27B6A5B003A686D
:1041A00013448AB21A807B6A01337B627A6A7B6825
:1041B0009A42E1D3B8690FF07FF800E000BF2837DA
:1041C000BD4680BD0004024080B582B000AF06232A
:1041D000FB71002201210A4807F05CFDFB1D012153
:1041E0001846FFF731FF01220121054807F052FD73
:1041F00032200CF0E2F800BF0837BD4680BD00BF9A
:104200000004024080B582B000AF0423FB7100229D
:1042100001210A4807F03EFDFB1D01211846FFF76A
:1042200013FF01220121054807F034FD0A200CF09C
:10423000C4F800BF0837BD4680BD00BF000402407F
:1042400080B483B000AF78600B467B807A887B684F
:104250001344FF2B01D87B6802E07B88C3F5807391
:1042600018460C37BD465DF8047B704780B586B0B4
:1042700000AF0346FB71FB791B037B61FFF7A4FFD3
:1042800020233B737B691B0EDBB27B737B691B0CAA
:10429000DBB2BB737B691B0ADBB2FB737B69DBB2EE
:1042A0003B74002201210C4807F0F4FC07F10C03D9
:1042B00004211846FFF7C8FE01220121064807F035
:1042C000E9FC4FF4E1700CF078F8FFF79BFF00BFBA
:1042D0001837BD4680BD00BF0004024090B5D5B080
:1042E00000AF07F5A874A4F5A2742060084607F58E
:1042F000A871A1F5A6710A6007F5A872A2F5A872C7
:10430000136007F5A873A3F5A37302461A8007F597
:10431000A873A3F5A2731B68C7F84C3107F5A873FF
:10432000A3F5A3731A8807F5A873A3F5A6731B68F2
:104330001344013B1B0AD7F84C211344C7F834310E
:10434000D7F83421D7F84C31D31A0133C7F83031BC
:10435000D7F84C311B09A7F84A31D7F834311B097B
:10436000A7F82E31B7F82E21B7F84A31D31A9BB2ED
:104370000133A7F82C31002387F849310DE0B7F855
:104380004A315A1CA7F84A21DBB21846FFF76EFFE4
:1043900097F84931013387F8493197F849319BB291
:1043A000B7F82C219A42EAD80023C7F844310023F9
:1043B00087F84331ABE0D7F84C311A0207F5A87300
:1043C000A3F5A3731B881344C7F8283107F5A87316
:1043D000A3F5A3731A8807F5A873A3F5A67311466E
:1043E0001868FFF72DFF0346A7F826310023C7F80A
:1043F0003C31FFF7E9FE07F5A873A3F59E7302228F
:104400001A70D7F828311B0CDAB207F5A873A3F598
:104410009E735A70D7F828311B0ADAB207F5A873D1
:10442000A3F59E739A70D7F82831DAB207F5A8730E
:10443000A3F59E73DA700423C7F83C31B7F8263130
:10444000D7F83C211344C7F82031002387F83B31CB
:104450001AE097F83B21D7F84431134407F5A872C6
:10446000A2F5A87212681A44D7F83C31591CC7F853
:104470003C11117807F5A872A2F59E72D15497F8F5
:104480003B31013387F83B3197F83B319BB2B7F8AA
:1044900026219A42DDD800220121234807F0FAFBA9
:1044A000D7F82031DAB207F1140311461846FFF7A6
:1044B000CBFD012201211C4807F0ECFBD7F84C3161
:1044C0000133C7F84C3107F5A873A3F5A373002295
:1044D0001A80B7F8262107F5A873A3F5A67307F588
:1044E000A871A1F5A67109688A1A1A60B7F8263171
:1044F000D7F844211344C7F844310A200BF05DFF7C
:10450000FFF780FE97F84331013387F8433197F87E
:104510004331D7F830219A423FF64DAF00BF00BF7C
:1045200007F5AA77BD4690BD0004024090B5D3B010
:1045300000AF07F5A474A4F59E742060084607F543
:10454000A471A1F5A2710A6007F5A472A2F5A47284
:10455000136007F5A473A3F59F7302461A8007F54D
:10456000A473A3F59E731B68C7F8443107F5A473C1
:10457000A3F59F731A8807F5A473A3F5A2731B68AC
:104580001344013B1B0AD7F844211344C7F82C31CC
:10459000D7F82C21D7F84431D31A0133C7F8283182
:1045A000D7F844311B09A7F84231D7F82C311B0941
:1045B000A7F82631B7F82621B7F84231D31A9BB2B3
:1045C0000133A7F82431002387F841310DE0B7F813
:1045D00042315A1CA7F84221DBB21846FFF746FECB
:1045E00097F84131013387F8413197F841319BB257
:1045F000B7F824219A42EAD80023C7F83C310023B7
:1046000087F83B31DCE0D7F844311A0207F5A47390
:10461000A3F59F731B881344C7F8203107F5A473D3
:10462000A3F59F731A8807F5A473A3F5A273114627
:104630001868FFF705FE0346A7F81E310023C7F8E8
:104640003431FFF7C1FD07F5A473A3F59C73022273
:104650001A70D7F820311B0CDAB207F5A473A3F552
:104660009C735A70D7F820311B0ADAB207F5A4738D
:10467000A3F59C739A70D7F82031DAB207F5A473CA
:10468000A3F59C73DA700423C7F83431B7F81E31F0
:104690005B08A7F81C310023A7F8323130E0D7F8C7
:1046A0003C315A08B7F8323113445B0007F5A47265
:1046B000A2F5A472126813441B88A7F81A31B7F840
:1046C0001A311B0A99B2D7F834315A1CC7F8342171
:1046D000C9B207F5A472A2F59C72D154D7F834314F
:1046E0005A1CC7F83421B7F81A21D1B207F5A472C1
:1046F000A2F59C72D154B7F832310133A7F83231A8
:10470000B7F83221B7F81C319A42C8D3B7F81E3136
:1047100003F001039BB2002B16D0B7F81E21D7F887
:104720003C311344013B07F5A472A2F5A472126850
:104730001A44D7F83431591CC7F83411117807F5E9
:10474000A472A2F59C72D15400220121234807F0E3
:10475000A1FAD7F83431DAB207F11003114618463E
:10476000FFF772FC012201211C4807F093FAD7F8E9
:1047700044310133C7F8443107F5A473A3F59F739F
:1047800000221A80B7F81E2107F5A473A3F5A273BF
:1047900007F5A471A1F5A27109688A1A1A60B7F821
:1047A0001E31D7F83C211344C7F83C310A200BF0E6
:1047B00004FEFFF727FD97F83B31013387F83B31C3
:1047C00097F83B31D7F828219A423FF61CAF00BF3B
:1047D00000BF07F5A677BD4690BD00BF00040240AC
:1047E00080B584B000AF03460A46FB711346BB7127
:1047F0000B4A07F1080392E8030083E80300FB7902
:104800003F33DBB27B73BB79FB7307F108010123F4
:10481000082204480AF07EFA00BF1037BD4680BD6A
:104820001C410108C00F002080B586B000AF0346D0
:104830000A46FB711346BB80114A07F10C0392E84C
:10484000030083E803000023FB750023BB75BB88CE
:10485000BB75BB881B0A9BB2FB75FB793F33DBB290
:104860007B74FB7DBB74BB7DFB7407F10C010123E2
:10487000082204480AF04EFA00BF1837BD4680BD32
:104880001C410108C00F002080B5C2B000AF07F581
:104890008473A3F582731860FEF7FAF901224FF4CE
:1048A00000619C4807F0F6F99B4B1B78092B02D15D
:1048B000994B00221A70984B1B78002B09D1974B0B
:1048C0001B7807EE903AF8EE677A954BC3ED007AC5
:1048D0007CE0914B1B78012B09D1904B1B7807EEA4
:1048E000903AF8EE677A8E4BC3ED017A6EE08A4B10
:1048F0001B78022B09D1894B1B7807EE903AF8EE12
:10490000677A874BC3ED027A60E0834B1B78032BF9
:1049100009D1824B1B7807EE903AF8EE677A804B0C
:10492000C3ED037A52E07C4B1B78042B09D17B4BFF
:104930001B7807EE903AF8EE677A794BC3ED047A6C
:1049400044E0754B1B78052B09D1744B1B7807EE9F
:10495000903AF8EE677A724BC3ED057A36E06E4B0B
:104960001B78062B09D16D4B1B7807EE903AF8EEB9
:10497000677A6B4BC3ED067A28E0674B1B78072BF1
:1049800009D1664B1B7807EE903AF8EE677A644BD4
:10499000C3ED077A1AE0604B1B78082B09D15F4BF7
:1049A0001B7807EE903AF8EE677A5D4BC3ED087A14
:1049B0000CE0594B1B78092B08D1584B1B7807EE9C
:1049C000903AF8EE677A564BC3ED097A554B1B784F
:1049D000092B02D1534B00221A70524B1B78002B2B
:1049E00009D1514B1B7807EE903AF8EE677A4F4B9E
:1049F000C3ED007A7CE04B4B1B78012B09D14A4B6D
:104A00001B7807EE903AF8EE677A484BC3ED017ACF
:104A10006EE0444B1B78022B09D1434B1B7807EE09
:104A2000903AF8EE677A414BC3ED027A60E03D4B75
:104A30001B78032B09D13C4B1B7807EE903AF8EE1C
:104A4000677A3A4BC3ED037A52E0364B1B78042B5E
:104A500009D1354B1B7807EE903AF8EE677A334B65
:104A6000C3ED047A44E02F4B1B78052B09D12E4B64
:104A70001B7807EE903AF8EE677A2C4BC3ED057A77
:104A800036E0284B1B78062B09D1274B1B7807EE05
:104A9000903AF8EE677A254BC3ED067A28E0214B71
:104AA0001B78072B09D1204B1B7807EE903AF8EEC4
:104AB000677A1E4BC3ED077A1AE01A4B1B78082B56
:104AC00009D1194B1B7807EE903AF8EE677A174B2D
:104AD000C3ED087A0CE0134B1B78092B08D1124B5D
:104AE0001B7807EE903AF8EE677A104BC3ED097A1F
:104AF0004FF400710E4807F0B5F80346002B1FD1A4
:104B00000C4B01221A700C4B01221A700B4B012224
:104B10001A7044E000100240C015002074170020F5
:104B2000B8160020BF1500200812002090160020A3
:104B300000080240791700207A1700207C17002017
:104B40004FF40071AE4807F08DF80346012B06D1F3
:104B5000AC4B00221A70AC4B00221A701FE04FF4CD
:104B60000061AA4807F07EF80346002B09D1A54B47
:104B700001221A70A64B01221A70A64B01221A704C
:104B80000DE04FF40061A14807F06CF80346012BDB
:104B900005D19C4B00221A709E4B00221A704FF4D4
:104BA00000619A4807F05EF80346002B03D1782095
:104BB000FEF7CCF90AE04FF40061944807F052F890
:104BC0000346012B02D17720FEF7C0F9FDF7D6FF8F
:104BD000FEF742FA53EC102B10461946FBF7B4FFD0
:104BE00003468D4A13600D228C498D480AF01DF949
:104BF00064200BF0E2FB8A480AF062F9874B9B784D
:104C0000062B3AD10023C7F804311BE0834AD7F8BA
:104C1000043113441978834AD7F8043113440A46FF
:104C20001A70814B1B780133DAB27F4B1A707B4AC2
:104C3000D7F80431134400221A70D7F80431013335
:104C4000C7F80431D7F80431092BDFDD734B9B78AB
:104C50000A2B12D10023C7F800310AE06F4AD7F8B7
:104C60000031134400221A70D7F800310133C7F81D
:104C70000031D7F800310C2BF0DDFEF7BDFF694B9A
:104C80005B799D2B79D1674B1B7A012B36D1674B12
:104C900000221A70664B00221A70664B00221A70AE
:104CA000654B01221A70654B00221A70644B00227A
:104CB0001A70644B00221A70634B00221A70634B07
:104CC00000221A70624B00221A7000220421102068
:104CD000FDF766F80023C7F8FC300AE0514AD7F820
:104CE000FC30134400221A70D7F8FC300133C7F8A7
:104CF000FC30D7F8FC30082BF0DD39E0494B1B7A4B
:104D0000022B35D1494B00221A70494B00221A70F0
:104D1000484B00221A70484B00221A70474B012260
:104D20001A70474B00221A70464B00221A70464BED
:104D300000221A70454B00221A70454B00221A704F
:104D4000002204211020FDF72BF80023C7F8F830CB
:104D50000AE0344AD7F8F830134400221A70D7F822
:104D6000F8300133C7F8F830D7F8F830082BF0DD09
:104D7000384B04221A7000F062BD2A4B5B79952BE8
:104D80006AD1284B1B7A012B66D1284B01221A705D
:104D9000274B00221A70274B00221A70264B002244
:104DA0001A70264B00221A70254B00221A70254BD0
:104DB00000221A70244B00221A70244B00221A7011
:104DC000234B00221A70002201211020FCF7E8FF7B
:104DD000204B01221A700023C7F8F4300AE0114A70
:104DE000D7F8F430134400221A70D7F8F4300133A6
:104DF000C7F8F430D7F8F430082BF0DD00F01FBD11
:104E000000080240791700207C170020000C0240A7
:104E10007A1700207B1700200C120020901500202C
:104E2000C00F00208415002078170020CA1500202C
:104E3000CB150020CC150020C8150020C915002076
:104E4000CD150020CE150020CF150020D015002054
:104E5000D11500209D150020A74B5B799B2B3ED1DF
:104E6000A54B1B7A012B3AD1A44B00221A70A44BFC
:104E700001221A70A34B00221A70A34B00221A7051
:104E8000A24B00221A70A24B00221A70A14B0022E2
:104E90001A70A14B00221A70A04B00221A70A04B6E
:104EA00000221A70002202211020FCF779FF9D4B8E
:104EB00002221A700023C7F8F0300AE08E4AD7F8B1
:104EC000F030134400221A70D7F8F0300133C7F8DD
:104ED000F030D7F8F030082BF0DD00F0B0BC864B96
:104EE0005B799C2B41D1844B1B7A012B3DD1322025
:104EF0000BF063FA814B00221A70814B00221A706A
:104F0000804B01221A70804B00221A707F4B0022C6
:104F10001A707F4B00221A707E4B00221A707E4B53
:104F200000221A707D4B00221A707D4B00221A70ED
:104F3000002203211020FCF733FF7A4B03221A7062
:104F40000023C7F8EC300AE06B4AD7F8EC30134482
:104F500000221A70D7F8EC300133C7F8EC30D7F8DC
:104F6000EC30082BF0DD00F06ABC634B5B799E2BC4
:104F70003ED1614B1B7A012B3AD1604B00221A7053
:104F80005F4B00221A705F4B00221A705E4B0022AA
:104F90001A705E4B00221A705D4B01221A705D4B35
:104FA00000221A705C4B00221A705C4B00221A70AF
:104FB0005B4B00221A70002205211020FCF7F0FE46
:104FC000584B05221A700023C7F8E8300AE04A4A15
:104FD000D7F8E830134400221A70D7F8E8300133CC
:104FE000C7F8E830D7F8E830082BF0DD00F027BC30
:104FF000414B5B799F2B3DD13F4B1B7A012B39D124
:105000003E4B00221A703E4B00221A703D4B00228C
:105010001A703D4B00221A703C4B00221A703C4B18
:1050200000221A703B4B01221A703B4B00221A706F
:105030003A4B00221A703A4B00221A7000220621C5
:105040001020FCF7ADFE374B06221A700023C7F87C
:10505000E4300AE0284AD7F8E430134400221A70FA
:10506000D7F8E4300133C7F8E430D7F8E430082B40
:10507000F0DDE4E3204B5B79A02B55D11E4B1B7A6E
:10508000012B51D11D4B00221A701D4B00221A70AA
:105090001C4B00221A701C4B00221A701B4B002262
:1050A0001A701B4B00221A701A4B00221A701A4BEE
:1050B00001221A70194B00221A70194B00221A7023
:1050C000002207211020FCF76BFE164B07221A70F6
:1050D0000023C7F8E0300AE0074AD7F8E03013446D
:1050E00000221A70D7F8E0300133C7F8E030D7F863
:1050F000E030082BF0DDA2E384150020CA15002063
:10510000CB150020CC150020C8150020C9150020A3
:10511000CD150020CE150020CF150020D015002081
:10512000D11500209D150020AC4B5B79A12B3DD102
:10513000AA4B1B7A012B39D1A94B00221A70A94B1B
:1051400000221A70A84B00221A70A84B00221A7075
:10515000A74B00221A70A74B00221A70A64B002200
:105160001A70A64B00221A70A54B01221A70A54B8B
:1051700000221A70002208211020FCF711FEA24B19
:1051800008221A700023C7F8DC300AE0934AD7F8E7
:10519000DC30134400221A70D7F8DC300133C7F832
:1051A000DC30D7F8DC30082BF0DD48E38B4B1B7983
:1051B000102B41D1894B5B79AF2B3DD1874B1B7AAB
:1051C000012B39D1864B00221A70864B00221A70AF
:1051D000854B00221A70854B00221A70844B0022E6
:1051E0001A70844B00221A70834B00221A70834B72
:1051F00000221A70824B00221A70824B01221A7010
:10520000002222211020FCF7CBFD804B22221A70B5
:105210000023C7F8D8300AE0704AD7F8D8301344D2
:1052200000221A70D7F8D8300133C7F8D830D7F831
:10523000D830082BF0DD02E3684B1B79102B41D1ED
:10524000664B5B79A52B3DD1644B1B7A012B39D181
:105250006F4B00221A706F4B00221A706E4B0022A7
:105260001A706E4B00221A706D4B01221A706D4B32
:1052700000221A706C4B00221A706C4B00221A70BC
:105280006B4B00221A706B4B00221A700022122105
:105290001020FCF785FD684B12221A700023C7F816
:1052A000D4300AE04D4AD7F8D430134400221A70A3
:1052B000D7F8D4300133C7F8D430D7F8D430082B1E
:1052C000F0DDBCE2454B1B79102B41D1434B5B79A0
:1052D000A62B3DD1414B1B7A012B39D14C4B0122DE
:1052E0001A704C4B00221A704B4B00221A704B4B19
:1052F00000221A704A4B00221A704A4B00221A7080
:10530000494B00221A70494B00221A70484B002268
:105310001A70484B00221A70002213211020FCF74B
:105320003FFD454B13221A700023C7F8D0300AE026
:105330002A4AD7F8D030134400221A70D7F8D03058
:105340000133C7F8D030D7F8D030082BF0DD76E243
:10535000224B1B79102B71D1204B5B79A72B6DD180
:105360001E4B1B7A012B69D1294B00221A70294B45
:1053700000221A70284B00221A70284B00221A7043
:10538000274B00221A70274B01221A70264B00224D
:105390001A70264B00221A70254B00221A70254BDA
:1053A00000221A70002214211020FCF7F9FC224B75
:1053B00014221A700023C7F8CC300AE0074AD7F845
:1053C000CC30134400221A70D7F8CC300133C7F820
:1053D000CC30D7F8CC30082BF0DD30E2841500203B
:1053E000CA150020CB150020CC150020C8150020C0
:1053F000C9150020CD150020CE150020CF150020A6
:10540000D0150020D11500209D1500209F150020EB
:10541000F7150020F8150020F9150020FA150020D6
:10542000FC150020FD150020FE150020FF150020B2
:1054300000160020FB1500209E150020AE4B1B79A6
:10544000102B41D1AC4B5B79A82B3DD1AA4B1B7AD9
:10545000012B39D1A94B00221A70A94B01221A70D5
:10546000A84B00221A70A84B00221A70A74B0022EA
:105470001A70A74B00221A70A64B00221A70A64B76
:1054800000221A70A54B00221A70A54B00221A7038
:10549000002215211020FCF783FCA24B15221A7064
:1054A0000023C7F8C8300AE0934AD7F8C83013443D
:1054B00000221A70D7F8C8300133C7F8C830D7F8BF
:1054C000C830082BF0DDBAE18B4B1B79102B41D192
:1054D000894B5B79A92B3DD1874B1B7A012B39D1A5
:1054E000864B00221A70864B00221A70854B0022D0
:1054F0001A70854B00221A70844B00221A70844B5C
:1055000000221A70834B01221A70834B00221A70FA
:10551000824B00221A70824B00221A700022162140
:105520001020FCF73DFC7F4B16221A700023C7F8B1
:10553000C4300AE0704AD7F8C430134400221A700D
:10554000D7F8C4300133C7F8C430D7F8C430082BBB
:10555000F0DD74E1684B1B79102B41D1664B5B7910
:10556000AA2B3DD1644B1B7A012B39D1634B00220E
:105570001A70634B00221A70624B01221A70624B40
:1055800000221A70614B00221A70614B00221A70BF
:10559000604B00221A70604B00221A705F4B002291
:1055A0001A705F4B00221A70002217211020FCF79E
:1055B000F7FB5C4B17221A700023C7F8C0300AE0D3
:1055C0004D4AD7F8C030134400221A70D7F8C030C3
:1055D0000133C7F8C030D7F8C030082BF0DD2EE11A
:1055E000454B1B79102B41D1434B5B79AB2B3DD104
:1055F000414B1B7A012B39D1404B00221A70404B92
:1056000000221A703F4B00221A703F4B00221A7082
:105610003E4B00221A703E4B00221A703D4B002276
:105620001A703D4B01221A703C4B00221A703C4B01
:1056300000221A70002218211020FCF7B1FB394B10
:1056400018221A700023C7F8BC300AE02A4AD7F89B
:10565000BC30134400221A70D7F8BC300133C7F8AD
:10566000BC30D7F8BC30082BF0DDE8E0224B1B79CA
:10567000102B59D1204B5B79AC2B55D11E4B1B7A8B
:10568000012B51D11D4B00221A701D4B00221A70A4
:105690001C4B00221A701C4B01221A701B4B00225B
:1056A0001A701B4B00221A701A4B00221A701A4BE8
:1056B00000221A70194B00221A70194B00221A701E
:1056C000002219211020FCF76BFB164B19221A70CF
:1056D0000023C7F8B8300AE0074AD7F8B8301344B7
:1056E00000221A70D7F8B8300133C7F8B830D7F8AD
:1056F000B830082BF0DDA2E084150020F71500205B
:10570000F8150020F9150020FA150020FC150020DE
:10571000FD150020FE150020FF15002000160020BA
:10572000FB1500209E150020A64B1B79102B41D1A4
:10573000A44B5B79AD2B3DD1A24B1B7A012B39D108
:10574000A14B00221A70A14B00221A70A04B00221C
:105750001A70A04B00221A709F4B00221A709F4BA8
:1057600000221A709E4B00221A709E4B00221A7063
:105770009D4B01221A709D4B00221A70002220219D
:105780001020FCF70DFB9A4B20221A700023C7F85B
:10579000B4300AE08B4AD7F8B430134400221A70B0
:1057A000D7F8B4300133C7F8B430D7F8B430082B89
:1057B000F0DD44E0834B1B79102B40D1814B5B79AA
:1057C000AE2B3CD17F4B1B7A012B38D17E4B002274
:1057D0001A707E4B00221A707D4B00221A707D4B8E
:1057E00000221A707C4B00221A707C4B00221A7027
:1057F0007B4B00221A707B4B00221A707A4B0022DE
:105800001A707A4B01221A70002221211020FCF715
:10581000C7FA774B21221A700023C7F8B0300AE08C
:10582000684AD7F8B030134400221A70D7F8B03065
:105830000133C7F8B030D7F8B030082BF0DD6D4B2E
:105840001B78002B53D05F4B5B79A22B24D15D4B8F
:105850001B7A012B20D1684B1B680133664A136009
:10586000654B1B68DBB219462420FCF72BFD002397
:10587000C7F8AC300AE0534AD7F8AC3013440022E2
:105880001A70D7F8AC300133C7F8AC30D7F8AC3069
:10589000082BF0DD01F0B2B84A4B5B79A32B41F045
:1058A000AD80484B1B7A012B41F0A880524B1B68FE
:1058B000013B514A1360504B1B68DBB21946242050
:1058C000FCF700FD0023C7F8A8300AE03D4AD7F8EE
:1058D000A830134400221A70D7F8A8300133C7F853
:1058E000A830D7F8A830082BF0DD01F087B8434B7B
:1058F0001B78002B53D0334B5B79A22B24D1314B37
:105900001B7A012B20D13E4B1B6801333C4A1360AC
:105910003B4B1B68DBB219462520FCF7D3FC002368
:10592000C7F8A4300AE0274AD7F8A430134400226D
:105930001A70D7F8A4300133C7F8A430D7F8A430D0
:10594000082BF0DD01F05AB81E4B5B79A32B41F018
:1059500055801C4B1B7A012B41F05080284B1B6853
:10596000013B274A1360264B1B68DBB219462520F2
:10597000FCF7A8FC0023C7F8A0300AE0114AD7F8CA
:10598000A030134400221A70D7F8A0300133C7F8B2
:10599000A030D7F8A030082BF0DD01F02FB8194B5C
:1059A0001B78002B30D0074B5B79A22B41F026806F
:1059B000044B1B7A012B01F02180024B5B79A32B56
:1059C00001F01CB884150020F7150020F815002000
:1059D000F9150020FA150020FC150020FD15002007
:1059E000FE150020FF15002000160020FB150020EA
:1059F0009F150020C81500201C000020C91500209C
:105A000020000020CA150020AD4B1B78002B00F0B1
:105A10008280AC4B5B79A22B3BD1AA4B1B7A012B2A
:105A200037D1A94B1B783C2B05D1A74B1A78A64B35
:105A30001A7000F0E3BFA54B00221A70A44B01229C
:105A40001A70A44B1B6841F2883118460AF0FEFC1C
:105A50009D4B1B780133DAB29B4B1A709A4B1B7823
:105A600019460220FCF72EFC0023C7F89C300AE000
:105A7000944AD7F89C30134400221A70D7F89C300F
:105A80000133C7F89C30D7F89C30082BF0DD00F0CC
:105A9000B5BF8C4B5B79A32B40F0B087894B1B7A49
:105AA000012B40F0AB87884B1B78052B05D1864B2B
:105AB0001A78854B1A7000F0A1BF844B00221A702F
:105AC000834B01221A70834B1B6841F288311846C0
:105AD0000AF0BCFC7C4B1B78013BDAB27A4B1A70A3
