:020000040800F2
:1000000000000220E9C5000895C400083910000866
:100010009DC40008A5C40008ADC40008000000008D
:10002000000000000000000000000000F14A01088C
:10003000B5C4000800000000414D0108A94D0108A9
:1000400039C6000839C6000839C6000839C6000894
:1000500039C6000839C6000839C6000839C6000884
:1000600039C6000839C6000839C6000839C6000874
:1000700039C6000839C6000839C6000839C6000864
:10008000C5C4000839C6000839C6000839C60008CA
:1000900039C6000839C6000839C60008D9C40008A6
:1000A00039C6000839C6000839C6000839C6000834
:1000B00039C6000839C6000839C6000839C6000824
:1000C00039C6000839C6000839C6000839C6000814
:1000D00039C60008F5C4000809C5000839C600087B
:1000E00039C600081DC5000839C6000839C6000811
:1000F00039C6000839C6000839C6000839C60008E4
:1001000039C6000839C6000839C6000839C60008D3
:1001100039C6000839C6000831C5000839C60008CC
:1001200039C6000839C6000845C5000839C60008A8
:1001300039C6000839C6000839C6000839C60008A3
:1001400039C6000839C6000839C6000839C6000893
:1001500039C6000839C6000839C6000839C6000883
:1001600039C6000839C6000839C6000839C6000873
:1001700039C6000839C6000839C60008000000006A
:0801800039C6000839C6000869
:1001900010B5054C237833B9044B13B10448AFF3C1
:1001A00000800123237010BDC80100200000000062
:1001B000D05F010808B5034B1BB103490348AFF3F7
:1001C000008008BD00000000CC010020D05F0108C5
:1001D00001F0FF01102A2BDB10F0070F08D010F8F8
:1001E000013B013A8B422DD010F0070F42B3F6D1FC
:1001F000F0B441EA012141EA014122F007047FF015
:1002000000070023F0E80256083C85EA010586EA6B
:10021000010685FA47F5A3FA87F586FA47F6A5FAA7
:1002200087F68EB9EED1F0BC01F0FF0102F00702B3
:1002300032B110F8013B013A83EA010313B1F8D15E
:100240000020704701387047002D06BF354603383F
:10025000073815F0010F07D1013015F4807F02BF78
:10026000013015F4C03F0130F0BC0138704700BFC9
:1002700081F0004102E000BF83F0004330B54FEA57
:1002800041044FEA430594EA050F08BF90EA020FC4
:100290001FBF54EA000C55EA020C7FEA645C7FEA57
:1002A000655C00F0E2804FEA5454D4EB5555B8BF7A
:1002B0006D420CDD2C4480EA020281EA030382EAEB
:1002C000000083EA010180EA020281EA0303362D7D
:1002D00088BF30BD11F0004F4FEA01314FF4801C50
:1002E0004CEA113102D0404261EB410113F0004F62
:1002F0004FEA03334CEA133302D0524263EB430319
:1003000094EA050F00F0A780A4F10104D5F1200EB6
:100310000DDB02FA0EFC22FA05F2801841F1000111
:1003200003FA0EF2801843FA05F359410EE0A5F1E5
:1003300020050EF1200E012A03FA0EFC28BF4CF016
:10034000020C43FA05F3C01851EBE37101F00045CC
:1003500007D54FF0000EDCF1000C7EEB00006EEBD9
:100360000101B1F5801F1BD3B1F5001F0CD3490863
:100370005FEA30004FEA3C0C04F101044FEA4452BA
:1003800012F5800F80F09A80BCF1004F08BF5FEA41
:10039000500C50F1000041EB045141EA050130BD21
:1003A0005FEA4C0C404141EB0101013C28BFB1F533
:1003B000801FE9D291F0000F04BF01460020B1FA7E
:1003C00081F308BF2033A3F10B03B3F120020CDA51
:1003D0000C3208DD02F1140CC2F10C0201FA0CF02F
:1003E00021FA02F10CE002F11402D8BFC2F1200C94
:1003F00001FA02F120FA0CFCDCBF41EA0C0190404A
:10040000E41AA2BF01EB0451294330BD6FEA040492
:100410001F3C1CDA0C340EDC04F11404C4F120027D
:1004200020FA04F001FA02F340EA030021FA04F38F
:1004300045EA030130BDC4F10C04C4F1200220FAE6
:1004400002F001FA04F340EA0300294630BD21FA24
:1004500004F0294630BD94F0000F83F4801306BFEA
:1004600081F480110134013D4EE77FEA645C18BFDE
:100470007FEA655C29D094EA050F08BF90EA020F75
:1004800005D054EA000C04BF1946104630BD91EA6D
:10049000030F1EBF0021002030BD5FEA545C05D170
:1004A0004000494128BF41F0004130BD14F58004AF
:1004B0003CBF01F5801130BD01F0004545F0FE4123
:1004C00041F470014FF0000030BD7FEA645C1ABF58
:1004D000194610467FEA655C1CBF0B46024650EA8F
:1004E000013406BF52EA033591EA030F41F40021BB
:1004F00030BD00BF90F0000F04BF0021704730B541
:100500004FF4806404F132044FF000054FF0000115
:1005100050E700BF90F0000F04BF0021704730B5D6
:100520004FF4806404F1320410F0004548BF4042AB
:100530004FF000013EE700BF42004FEAE2014FEA00
:1005400031014FEA02701FBF12F07F4393F07F4FDB
:1005500081F06051704732F07F4208BF704793F0DE
:100560007F4F04BF41F40021704730B54FF46074F1
:1005700001F0004521F000411CE700BF50EA0102F4
:1005800008BF704730B54FF000050AE050EA01029D
:1005900008BF704730B511F0004502D5404261EB0D
:1005A00041014FF4806404F132045FEA915C3FF44E
:1005B000D8AE4FF003025FEADC0C18BF03325FEAEB
:1005C000DC0C18BF033202EBDC02C2F1200300FA9C
:1005D00003FC20FA02F001FA03FE40EA0E0021FAC1
:1005E00002F11444BDE600BF70B54FF0FF0C4CF4AF
:1005F000E06C1CEA11541DBF1CEA135594EA0C0F61
:1006000095EA0C0F00F0DEF82C4481EA030621EA9B
:100610004C5123EA4C5350EA013518BF52EA0335D6
:1006200041F4801143F4801338D0A0FB02CE4FF088
:100630000005E1FB02E506F00042E0FB03E54FF0B8
:100640000006E1FB03569CF0000F18BF4EF0010EB0
:10065000A4F1FF04B6F5007F64F5407404D25FEAAC
:100660004E0E6D4146EB060642EAC62141EA55515F
:100670004FEAC52040EA5E504FEACE2EB4F1FD0CA1
:1006800088BFBCF5E06F1ED8BEF1004F08BF5FEA1F
:10069000500E50F1000041EB045170BD06F00046D1
:1006A00046EA010140EA020081EA0301B4EB5C047E
:1006B000C2BFD4EB0C0541EA045170BD41F4801176
:1006C0004FF0000E013C00F3AB8014F1360FDEBF9B
:1006D000002001F0004170BDC4F10004203C35DA77
:1006E0000C341BDC04F11404C4F1200500FA05F3FA
:1006F00020FA04F001FA05F240EA020001F000429B
:1007000021F0004110EBD37021FA04F642EB060110
:100710005EEA430E08BF20EAD37070BDC4F10C043A
:10072000C4F1200500FA04F320FA05F001FA04F2FE
:1007300040EA020001F0004110EBD37041F10001EA
:100740005EEA430E08BF20EAD37070BDC4F12005F5
:1007500000FA05F24EEA020E20FA04F301FA05F25D
:1007600043EA020321FA04F001F0004121FA04F205
:1007700020EA020000EBD3705EEA430E08BF20EAD5
:10078000D37070BD94F0000F0FD101F0004640000F
:1007900041EB010111F4801F08BF013CF7D041EA91
:1007A000060195F0000F18BF704703F00046520095
:1007B00043EB030313F4801F08BF013DF7D043EA66
:1007C0000603704794EA0C0F0CEA135518BF95EA1C
:1007D0000C0F0CD050EA410618BF52EA4306D1D1A3
:1007E00081EA030101F000414FF0000070BD50EAC2
:1007F000410606BF1046194652EA430619D094EA4C
:100800000C0F02D150EA013613D195EA0C0F05D135
:1008100052EA03361CBF104619460AD181EA030189
:1008200001F0004141F0FE4141F470014FF0000041
:1008300070BD41F0FE4141F4780170BD70B54FF0DC
:10084000FF0C4CF4E06C1CEA11541DBF1CEA13555C
:1008500094EA0C0F95EA0C0F00F0A7F8A4EB05043E
:1008600081EA030E52EA03354FEA013100F0888035
:100870004FEA03334FF0805545EA131343EA1263FE
:100880004FEA022245EA111545EA10654FEA0026B3
:100890000EF000419D4208BF964244F1FD0404F56C
:1008A000407402D25B084FEA3202B61A65EB0305C8
:1008B0005B084FEA32024FF480104FF4002CB6EB85
:1008C000020E75EB030E22BFB61A754640EA0C0005
:1008D0005B084FEA3202B6EB020E75EB030E22BF45
:1008E000B61A754640EA5C005B084FEA3202B6EB86
:1008F000020E75EB030E22BFB61A754640EA9C0045
:100900005B084FEA3202B6EB020E75EB030E22BF14
:10091000B61A754640EADC0055EA060E18D04FEAD2
:10092000051545EA16754FEA06164FEAC30343EA72
:1009300052734FEAC2025FEA1C1CC0D111F4801F3F
:100940000BD141EA00014FF000004FF0004CB6E738
:1009500011F4801F04BF01430020B4F1FD0C88BFD7
:10096000BCF5E06F3FF6AFAEB5EB030C04BFB6EBE2
:10097000020C5FEA500C50F1000041EB045170BDD5
:100980000EF0004E4EEA113114EB5C04C2BFD4EB02
:100990000C0541EA045170BD41F480114FF0000E86
:1009A000013C90E645EA060E8DE60CEA135594EA02
:1009B0000C0F08BF95EA0C0F3FF43BAF94EA0C0F05
:1009C0000AD150EA01347FF434AF95EA0C0F7FF47A
:1009D00025AF104619462CE795EA0C0F06D152EACE
:1009E00003353FF4FDAE1046194622E750EA4106B2
:1009F00018BF52EA43067FF4C5AE50EA41047FF4C3
:100A00000DAF52EA43057FF4EBAE12E74FF0FF3C27
:100A100006E000BF4FF0010C02E000BF4FF0010CF8
:100A20004DF804CD4FEA410C7FEA6C5C4FEA430C71
:100A300018BF7FEA6C5C1BD001B050EA410C0CBFC0
:100A400052EA430C91EA030F02BF90EA020F002022
:100A5000704710F1000F91EA030F58BF994208BF89
:100A600090422CBFD8176FEAE37040F00100704746
:100A70004FEA410C7FEA6C5C02D150EA013C07D19D
:100A80004FEA430C7FEA6C5CD6D152EA033CD3D0E8
:100A90005DF8040B704700BF8446104662468C46E2
:100AA0001946634600E000BF01B5FFF7B7FF002815
:100AB00048BF10F1000F01BD4DF808EDFFF7F4FF3E
:100AC0000CBF012000205DF808FB00BF4DF808EDC9
:100AD000FFF7EAFF34BF012000205DF808FB00BFEC
:100AE0004DF808EDFFF7E0FF94BF012000205DF80E
:100AF00008FB00BF4DF808EDFFF7CEFF94BF0120C3
:100B000000205DF808FB00BF4DF808EDFFF7C4FFBB
:100B100034BF012000205DF808FB00BF4FEA410C04
:100B20007FEA6C5C02D150EA013C0AD14FEA430CE7
:100B30007FEA6C5C02D152EA033C02D14FF0000024
:100B400070474FF0010070474FEA410212F5001262
:100B500015D211D56FF47873B3EB625212D94FEA04
:100B6000C12343F0004343EA505311F0004F23FAEE
:100B700002F018BF404270474FF00000704750EA43
:100B8000013005D111F0004008BF6FF00040704700
:100B90004FF00000704700BF4A0011D212F500125A
:100BA00011D20DD56FF47873B3EB62520ED44FEAC5
:100BB000C12343F0004343EA505323FA02F0704745
:100BC0004FF00000704750EA013002D14FF0FF3083
:100BD00070474FF0000070474FEA4102B2F1E04326
:100BE00024BFB3F5001CDCF1FE5C0DD901F0004C14
:100BF0004FEAC0024CEA5070B2F1004F40EB830064
:100C000008BF20F00100704711F0804F21D113F18F
:100C10003872BCBF01F00040704741F480114FEAC8
:100C20005252C2F11802C2F1200C10FA0CF320FA51
:100C300002F018BF40F001004FEAC1234FEAD3236E
:100C400003FA0CFC40EA0C0023FA02F34FEA4303D8
:100C5000CCE77FEA625307D150EA01331EBF4FF061
:100C6000FE4040F44000704701F0004040F0FE407C
:100C700040F40000704700BF53B94AB9002908BFCB
:100C800000281CBF4FF0FF314FF0FF3000F088B953
:100C9000ADF1080C6DE904CE00F006F8DDF804E0D3
:100CA000DDE9022304B070472DE9F047089D8E4628
:100CB00004468846002B4AD18A42174662D9B2FAC6
:100CC00082F64EB1C6F1200301FA06F820FA03F3CA
:100CD000B74043EA0808B4404FEA174E1FFA87FCB2
:100CE000B8FBFEF1230C0EFB118843EA084301FB1D
:100CF0000CF29A4209D9FB1801F1FF3080F0EA802A
:100D00009A4240F2E78002393B449A1AA3B2B2FBFE
:100D1000FEF00EFB102243EA024300FB0CFC9C4554
:100D200009D9FB1800F1FF3280F0D6809C4540F2D3
:100D3000D3803B44023840EA0140A3EB0C0300217E
:100D40001DB1F3400022C5E90032BDE8F0878B42B7
:100D500005D90DB1C5E9000100210846F5E7B3FA50
:100D600083F1002946D1734502D3824200F2058106
:100D7000841A6EEB030201209046002DE5D0C5E9F0
:100D80000048E2E7002A00F09080B2FA82F6002ED6
:100D900040F0A4808A1A030C4FEA174E80B2BCB20E
:100DA0000121B2FBFEFC0EFB1C2243EA024304FBC2
:100DB0000CF29A4207D9FB180CF1FF3802D29A4282
:100DC00000F2E080C4469B1AB3FBFEF20EFB123326
:100DD00040EA034302FB04F49C4207D9FB1802F1EA
:100DE000FF3002D29C4200F2CA8002461B1B42EA3C
:100DF0000C40A5E7C1F120068B4022FA06F71F43FD
:100E00000EFA01F420FA06F32EFA06FE4FEA17490D
:100E1000234300FA01F81FFA87FCBEFBF9F01C0C13
:100E200009FB10EE44EA0E4400FB0CFEA64502FA54
:100E300001F209D93C1900F1FF3A80F09C80A645E7
:100E400040F2998002383C44A4EB0E041FFA83FE62
:100E5000B4FBF9F309FB13444EEA044403FB0CFC16
:100E6000A44508D93C1903F1FF3E80F08280A445D7
:100E70007FD9023B3C4443EA0040A4EB0C04A0FBB6
:100E800002EC64457346E14662D35FD05DB1B8EBD6
:100E9000030264EB090404FA06F622FA01F31E4386
:100EA000CC40C5E9006400214FE7B1FBF2FC010C26
:100EB00041EA0E4180B240EA01423B4638463C4698
:100EC000B846BE462026B1FBF7F1A2EB080241EA84
:100ED0000C4166E7014618E710462CE7C6F12002F0
:100EE0002EFA02F3B740B14020FA02F24FEA174E51
:100EF0000A43B3FBFEF8BCB20EFB1833110C41EAF7
:100F0000034108FB04F9B04089454FEA104380B221
:100F10003ED9791808F1FF3C01D289451FD8A1EBD1
:100F20000901B1FBFEF909FB04F80EFB191192B29D
:100F300042EA0142424529D2BA1809F1FF31C4D22E
:100F40004245C2D2A9F102013A44BEE7F0459DD222
:100F5000BEEB02036CEB070C0138E14696E7A7EB0A
:100F600009094944A8F1020CB1FBFEF909FB04F898
:100F7000DBE773467FE7504666E70846FDE63B44FD
:100F8000023A33E7ACF1020C3B441CE749469CE7CC
:100F9000A1EB0901C446B1FBFEF909FB04F8C4E763
:100FA000704700BF80B485B000AFF860B9607A6068
:100FB000FB68074A1A60BB68064A1A607B68802291
:100FC0001A6000BF1437BD465DF8047B704700BF50
:100FD000E40100208402002080B485B000AFF860F6
:100FE000B9607A60FB68074A1A60BB68064A1A60F3
:100FF0007B684FF400721A6000BF1437BD465DF87D
:10100000047B7047840400202405002080B400AFD6
:10101000BFF34F8F00BF064BDB6803F4E062044967
:10102000044B1343CB60BFF34F8F00BF00BFFDE7FE
:1010300000ED00E00400FA0580B500AFFFF7E6FF21
:10104000B0B5BEB000AF0BF0F9FA00F02FF94FF4D5
:101050007A700BF035FB00F023FD00F0EBFC00F0A4
:101060007FFB00F0BDFC00F091FC00F08BF900F07C
:1010700041FB00F07DFA00F013FC00F005FB00F0EE
:1010800025FA00F0D1F900216D480EF08BFE04F036
:101090007BF800216B480EF085FE0023C7F8F03086
:1010A0000023C7F8F43007F1F0030121184611F0CE
:1010B0004DFA0346644A1360644BC7F8E8300023D6
:1010C000C7F8EC3007F1E80300220121184611F0BF
:1010D00089F903465E4A13605E4BC7F8E03000238F
:1010E000C7F8E43007F1E00300220121184611F0AF
:1010F00079F90346584A1360584B07F1C4041D465A
:101100000FCD0FC495E8070084E8070007F1C4037A
:101110000021184611F005F90346514A1360514B5E
:1011200007F1A8041D460FCD0FC495E8070084E819
:10113000070007F1A8030021184611F0F2F8034652
:10114000494A1360494B07F18C041D460FCD0FC46B
:1011500095E8070084E8070007F18C030021184692
:1011600011F0DFF80346424A1360424B07F1700466
:101170001D460FCD0FC495E8070084E8070007F16E
:1011800070030021184611F0CCF803463A4A136068
:101190003A4B07F154041D460FCD0FC495E80700E4
:1011A00084E8070007F154030021184611F0B9F84C
:1011B0000346334A1360334B07F138041D460FCD05
:1011C0000FC495E8070084E8070007F13803002101
:1011D000184611F0A6F803462B4A13602B4B07F173
:1011E0001C041D460FCD0FC495E8070084E80700D6
:1011F00007F11C030021184611F093F80346244A16
:101200001360244B3C461D460FCD0FC495E80700E4
:1012100084E807003B460021184611F082F8034697
:101220001D4A136018221D491D480FF023FE092294
:101230001C491D480FF01EFE11F06CF800BFFDE7C1
:10124000400F0020880F00204811002029B5000819
:101250004011002059B5000844110020F05F01083A
:1012600020110020146001082411002040600108B2
:10127000281100206C6001082C11002090600108EA
:1012800030110020B860010834110020DC60010832
:1012900038110020006101083C11002020130020BB
:1012A0001810002038190020D00F002080B594B00D
:1012B00000AF07F1200330220021184614F058F93E
:1012C00007F10C0300221A605A609A60DA601A6112
:1012D0000023BB60294B1B6C284A43F080531364E6
:1012E000264B1B6C03F08053BB60BB6800237B6004
:1012F000234B1B68224A43F480431360204B1B6836
:1013000003F480437B607B6809233B624FF48033A6
:101310007B6201237B630223BB634FF48003FB6387
:1013200004233B64A8237B640223BB640423FB6483
:1013300007F1200318460CF0BDFC0346002B01D03A
:101340000AF0F4F90F23FB6002233B6100237B6169
:101350004FF4A053BB614FF48053FB6107F10C03C2
:10136000052118460CF01EFF0346002B01D00AF0A1
:10137000DDF900BF5037BD4680BD00BF00380240D8
:101380000070004080B584B000AF3B4600221A6078
:101390005A609A60DA60214B214A1A601F4B4FF461
:1013A00080325A601D4B00229A601C4B00221A6149
:1013B0001A4B01221A76194B002283F82020174B72
:1013C0000022DA62154B174A9A62144B0022DA6047
:1013D000124B0122DA61114B002283F830200F4BAF
:1013E00001225A610D480BF08FF90346002B01D002
:1013F0000AF09CF909233B6001237B600023BB605A
:101400003B46194605480BF061FB0346002B01D013
:101410000AF08CF900BF1037BD4680BD980D002042
:10142000002001400100000F80B584B000AF3B46B2
:1014300000221A605A609A60DA60214B214A1A60D1
:101440001F4B4FF480325A601D4B00229A601C4B98
:1014500000221A611A4B00221A76194B002283F8D7
:101460002020174B0022DA62154B174A9A62144B60
:101470000022DA60124B0122DA61114B002283F85C
:1014800030200F4B01225A610D480BF03DF9034605
:10149000002B01D00AF04AF900233B6001237B6056
:1014A0000023BB603B46194605480BF00FFB034683
:1014B000002B01D00AF03AF900BF1037BD4680BDBD
:1014C000E00D0020002101400100000F80B584B034
:1014D00000AF3B4600221A605A609A60DA60214BE6
:1014E000214A1A601F4B4FF480325A601D4B002274
:1014F0009A601C4B00221A611A4B01221A76194B72
:10150000002283F82020174B0022DA62154B174A7D
:101510009A62144B0022DA60124B0122DA61114BFD
:10152000002283F830200F4B01225A610D480BF046
:10153000EBF80346002B01D00AF0F8F801233B60DA
:1015400001237B600023BB603B46194605480BF036
:10155000BDFA0346002B01D00AF0E8F800BF1037AF
:10156000BD4680BD280E0020002201400100000F72
:1015700080B590B000AF07F12C0300221A605A60CA
:101580009A60DA601A610023BB623B462822002180
:10159000184613F0EDFF3A4B3A4A1A60384B0022D6
:1015A0005A60374B7F229A60354BFF22DA60344B0A
:1015B00000221A61324B00225A61314B00229A619B
:1015C0002F480DF023F90346002B01D00AF0AEF8A6
:1015D000002387F82C30002387F82D30002387F86C
:1015E0002E300023BB630023FB6307F12C03002292
:1015F000194623480DF08DF90346002B01D00AF05F
:1016000095F8022387F82830042387F8293001232E
:1016100087F82A30192387F82B3007F12803002296
:10162000194617480DF00FFA0346002B01D00AF0B7
:101630007DF800233B7000237B700023BB700023E8
:101640007B600023FB6000233B6100237B61002360
:10165000BB610023FB61012387F820304FF48073C6
:101660007B623B460022194605480DF071FA03469D
:10167000002B01D00AF05AF800BF4037BD4680BDAC
:10168000700E00200028004080B500AF174B184AAC
:101690001A60164B4FF482725A60144B00229A6003
:1016A000124B0022DA60114B00221A610F4B00220C
:1016B0005A610E4B4FF400729A610C4B0022DA61B2
:1016C0000A4B00221A62094B00225A62074B002281
:1016D0009A62064B0A22DA6204480DF077FC034650
:1016E000002B01D00AF022F800BF80BD900E002030
:1016F0000030014080B500AF174B184A1A60164BF6
:101700004FF482725A60144B00229A60124B0022EE
:10171000DA60114B02221A610F4B00225A610E4B04
:101720004FF400729A610C4B1822DA610A4B0022C6
:101730001A62094B00225A62074B00229A62064B3A
:101740000A22DA6204480DF041FC0346002B01D066
:1017500009F0ECFF00BF80BDE80E0020003C004017
:1017600080B596B000AF07F1480300221A605A60B6
:101770009A60DA6007F1400300221A605A6007F1AC
:10178000240300221A605A609A60DA601A615A6172
:101790009A613B1D20220021184613F0E9FE3E4BC2
:1017A0003E4A1A603C4B01225A603B4B00229A6031
:1017B000394BD122DA60384B00221A61364B0022B5
:1017C0005A61354B00229A6133480EF0D1F9034635
:1017D000002B01D009F0AAFF4FF48053BB6407F13E
:1017E000480319462C480EF057FD0346002B01D044
:1017F00009F09CFF28480EF07BFA0346002B01D02D
:1018000009F094FF00233B6400237B6407F140034D
:10181000194621480FF04CF90346002B01D009F07E
:1018200085FF60237B620023BB620023FB620023F1
:101830003B6300237B630023BB630023FB6307F14F
:1018400024030022194614480EF064FC0346002BC2
:1018500001D009F06BFF00237B600023BB600023F5
:10186000FB6000233B6100237B614FF40053BB61AD
:1018700000233B623B1D194607480FF095F90346CC
:10188000002B01D009F052FF03480AF031FC00BFE1
:101890005837BD4680BD00BF400F0020000001400A
:1018A00080B58EB000AF07F1280300221A605A609D
:1018B0009A60DA6007F1200300221A605A603B1D2B
:1018C00000221A605A609A60DA601A615A619A615D
:1018D0002C4B2D4A1A602B4B01225A60294B0022B7
:1018E0009A60284BDC22DA60264B00221A61254BD5
:1018F00000229A6123480EF03BF90346002B01D0E9
:1019000009F014FF4FF48053BB6207F12803194616
:101910001C480EF0C1FC0346002B01D009F006FF65
:1019200018480EF0E5F90346002B01D009F0FEFE41
:1019300000233B6200237B6207F120031946114814
:101940000FF0B6F80346002B01D009F0EFFE60233C
:101950007B600023BB600023FB6000237B613B1D99
:101960000022194607480EF0D5FB0346002B01D094
:1019700009F0DCFE03480AF0BBFB00BF3837BD4668
:1019800080BD00BF880F00200008004080B500AF78
:10199000114B124A1A60104B4FF4E1225A600E4B61
:1019A00000229A600C4B0022DA600B4B00221A6175
:1019B000094B0C225A61084B00229A61064B002207
:1019C000DA6105480FF056F90346002B01D009F003
:1019D000ADFE00BF80BD00BFD00F00200010014051
:1019E00080B500AF114B124A1A60104B4FF4E13230
:1019F0005A600E4B00229A600C4B0022DA600B4BAF
:101A000000221A61094B0C225A61084B00229A618C
:101A1000064B0022DA6105480FF02CF90346002B33
:101A200001D009F083FE00BF80BD00BF1810002068
:101A30000044004080B582B000AF00237B60174BAC
:101A40001B6B164A43F400131363144B1B6B03F414
:101A500000137B607B6800233B60104B1B6B0F4ABD
:101A600043F4800313630D4B1B6B03F480033B6053
:101A70003B680022052110200BF0FEFA10200BF02D
:101A800017FB002205213A200BF0F6FA3A200BF062
:101A90000FFB00BF0837BD4680BD00BF00380240C5
:101AA00080B58CB000AF07F11C0300221A605A60A9
:101AB0009A60DA601A610023BB61744B1B6B734A36
:101AC00043F080031363714B1B6B03F08003BB6116
:101AD000BB6900237B616D4B1B6B6C4A43F00403B5
:101AE00013636A4B1B6B03F004037B617B69002368
:101AF0003B61664B1B6B654A43F001031363634B09
:101B00001B6B03F001033B613B690023FB605F4BF0
:101B10001B6B5E4A43F0020313635C4B1B6B03F0C9
:101B20000203FB60FB680023BB60584B1B6B574AEA
:101B300043F010031363554B1B6B03F01003BB60A2
:101B4000BB6800237B60514B1B6B504A43F008037A
:101B500013634E4B1B6B03F008037B607B68002212
:101B600044214B480CF068F80022102149480CF041
:101B700063F80022012148480CF05EF800224CF680
:101B8000024146480CF058F800224FF402514448F4
:101B90000CF052F84423FB6101233B6200237B627B
:101BA0000023BB6207F11C03194639480BF090FE75
:101BB0001023FB6101233B6200237B620023BB6295
:101BC00007F11C03194633480BF082FE0123FB6129
:101BD00001233B6200237B620023BB6207F11C03ED
:101BE00019462D480BF074FE4CF60243FB610123AD
:101BF0003B6200237B620023BB6207F11C03194692
:101C000026480BF065FE4FF40053FB6100233B6256
:101C100000237B6207F11C03194620480BF058FE95
:101C20004FF40063FB6100233B6200237B6207F1FA
:101C30001C0319461A480BF04BFE4FF40253FB618C
:101C400001233B6200237B620023BB6207F11C037C
:101C5000194613480BF03CFE4FF40073FB614FF440
:101C600088133B6201237B6207F11C031946084875
:101C70000BF02EFE0022052117200BF0FDF9172096
:101C80000BF016FA00BF3037BD4680BD0038024069
:101C90000008024000000240000402400010024020
:101CA000000C024090B585B000AF044608461146CE
:101CB0001A462346FB710346BB710B467B711346E4
:101CC0003B71082013F0F0FA0346FB603B79002BD0
:101CD00025D12B4B01221A70FB685A221A70FB681F
:101CE0000133A5221A70FB68023305221A70FB68C3
:101CF000033382221A70FB680433FA791A70FB6886
:101D00000533BA791A70FB68063300221A707A79A3
:101D1000FB6807331B498A5C1A70FB682CE03B792F
:101D2000012B25D1164B00221A70FB685A221A701B
:101D3000FB680133A5221A70FB68023305221A7072
:101D4000FB68033382221A70FB680433FA791A7035
:101D5000FB680533BA791A70FB68063300221A70E3
:101D60007A79FB68073308498A5C1A70FB6803E0DC
:101D7000F86813F0A1FA002318461437BD4690BD49
:101D8000021A0020300100204801002080B584B0F4
:101D900000AF0346FB710B46BB7113467B7107F125
:101DA000080300221A605A605A233B72A5237B72F3
:101DB0000523BB728223FB72FB793B73BB797B7378
:101DC0000023BB737B79074AD35CFB7307F10801DF
:101DD0000123082204480EF09DFF00BF1037BD46C6
:101DE00080BD00BF48010020D00F002080B584B026
:101DF00000AF0346FB710B46BB7113467B71082095
:101E000013F052FA0346FB60FB79102B40F0FE8181
:101E1000BB79002B00F0FA81BB79013B212B00F24A
:101E2000F58101A252F823F0B11E0008E31E00085C
:101E30000F1F00083B1F0008671F0008931F0008C2
:101E4000BF1F0008EB1F00080D2200080D2200082C
:101E50000D2200080D2200080D2200080D220008A6
:101E60000D2200080D2200080D220008172000088E
:101E7000432000086F2000089B200008C7200008AE
:101E8000F32000081F2100084B2100080D22000844
:101E90000D2200080D2200080D2200080D22000866
:101EA0000D22000877210008A3210008E121000885
:101EB000C74B1B78184600F017FC7B79184600F0DA
:101EC00057FC322010F079FA7B7900220121102092
:101ED000FFF7E8FE014601230822BE480EF01AFF74
:101EE00094E1BB4B1B78184600F0FEFB7B7918464B
:101EF00000F03EFC7B79012202211020FFF7D2FE88
:101F0000014601230822B3480EF004FF7EE1B04BE6
:101F10001B78184600F0E8FB7B79184600F028FC97
:101F20007B79022203211020FFF7BCFE014601232A
:101F30000822A8480EF0EEFE68E1A54B1B78184673
:101F400000F0D2FB7B79184600F012FC7B7903226B
:101F500004211020FFF7A6FE0146012308229D4818
:101F60000EF0D8FE52E19A4B1B78184600F0BCFBED
:101F70007B79184600F0FCFB7B79042205211020B8
:101F8000FFF790FE01460123082292480EF0C2FEA0
:101F90003CE18F4B1B78184600F0A6FB7B79184676
:101FA00000F0E6FB7B79052206211020FFF77AFE80
:101FB00001460123082287480EF0ACFE26E1844B3F
:101FC0001B78184600F090FB7B79184600F0D0FB98
:101FD0007B79062207211020FFF764FE01460123CA
:101FE00008227C480EF096FE10E1794B1B781846CB
:101FF00000F07AFB7B79184600F0BAFB7B79072268
:1020000008211020FFF74EFE0146012308227148E7
:102010000EF080FEFAE0704B1B78184600F064FB6F
:102020007B79184600F0A4FB7B790B22122110204B
:10203000FFF738FE01460123082266480EF06AFECB
:10204000E4E0654B1B78184600F04EFB7B791846A0
:1020500000F08EFB7B790C2213211020FFF722FE6B
:102060000146012308225B480EF054FECEE05A4B95
:102070001B78184600F038FB7B79184600F078FB97
:102080007B790D2214211020FFF70CFE014601235D
:10209000082250480EF03EFEB8E04F4B1B78184621
:1020A00000F022FB7B79184600F062FB7B790E2260
:1020B00015211020FFF7F6FD0146012308224548AF
:1020C0000EF028FEA2E0444B1B78184600F00CFBF3
:1020D0007B79184600F04CFB7B790F2216211020EB
:1020E000FFF7E0FD0146012308223A480EF012FEF8
:1020F0008CE0394B1B78184600F0F6FA7B791846CD
:1021000000F036FB7B79102217211020FFF7CAFD63
:102110000146012308222F480EF0FCFD76E02E4BED
:102120001B78184600F0E0FA7B79184600F020FB97
:102130007B79112218211020FFF7B4FD01460123FD
:10214000082224480EF0E6FD60E0234B1B78184679
:1021500000F0CAFA7B79184600F00AFB7B7912225C
:1021600019211020FFF79EFD01460123082219487E
:102170000EF0D0FD4AE0194B1B78184600F0B4FA77
:102180007B79184600F0F4FA7B7913222021102085
:10219000FFF788FD0146012308220E480EF0BAFD24
:1021A00034E00E4B1B78184600F09EFA7B791846F7
:1021B00000F0DEFA7B79142221211020FFF772FD56
:1021C00001460123082203480EF0A4FD1EE000BFD3
:1021D00051190020D00F002052190020531900205F
:1021E0000E4B1B78184600F07FFA7B79184600F0FA
:1021F000BFFA7B79152222211020FFF753FD0146FB
:102200000123082206480EF085FD00BFF86813F090
:1022100053F800BF18461037BD4680BD5319002043
:10222000D00F002080B582B000AF78600B46FB7005
:10223000FB789AB240F24C43796803480CF04FFFA8
:1022400000BF0837BD4680BD900E002080B582B02B
:1022500000AF786039603B689AB240F24C437968CD
:1022600003480DF080F800BF0837BD4680BD00BFB1
:10227000900E002080B588B000AFF8607A603B60B7
:102280000B46FB72FB681A02FB7A1344FB610323C3
:102290003B75FB691B0CDBB27B75FB691B0ADBB270
:1022A000BB75FB69DBB2FB75002201210A480BF00C
:1022B000C3FC07F1140304211846FFF7B3FF796844
:1022C0003868FFF7C3FF0122012103480BF0B4FC7B
:1022D00000BF2037BD4680BD0004024080B582B0FB
:1022E00000AF0623FB71002201210A480BF0A4FC79
:1022F000FB1D01211846FFF795FF0122012105482A
:102300000BF09AFC322010F058F800BF0837BD4699
:1023100080BD00BF0004024080B582B000AF04233E
:10232000FB71002201210A480BF086FCFB1D0121F4
:102330001846FFF777FF0122012105480BF07CFCCE
:102340000A2010F03AF800BF0837BD4680BD00BF34
:102350000004024080B483B000AF78600B467B80FD
:102360007A887B681344FF2B01D87B6802E07B8866
:10237000C3F5807318460C37BD465DF8047B704783
:1023800080B586B000AF0346FB71FB791B037B6110
:10239000FFF7A4FF20233B737B691B0EDBB27B732B
:1023A0007B691B0CDBB2BB737B691B0ADBB2FB7363
:1023B0007B69DBB23B74002201210C480BF03CFC32
:1023C00007F10C0304211846FFF72CFF012201211D
:1023D00006480BF031FC4FF4E1700FF0EEFFFFF711
:1023E0009BFF00BF1837BD4680BD00BF0004024000
:1023F00090B5D5B000AF07F5A874A4F5A27420601D
:10240000084607F5A871A1F5A6710A6007F5A8723C
:10241000A2F5A872136007F5A873A3F5A37302468B
:102420001A8007F5A873A3F5A2731B68C7F84C318F
:1024300007F5A873A3F5A3731A8807F5A873A3F586
:10244000A6731B681344013B1B0AD7F84C211344A5
:10245000C7F83431D7F83421D7F84C31D31A0133C7
:10246000C7F83031D7F84C311B09A7F84A31D7F8F3
:1024700034311B09A7F82E31B7F82E21B7F84A31AD
:10248000D31A9BB20133A7F82C31002387F84931C6
:102490000DE0B7F84A315A1CA7F84A21DBB21846BA
:1024A000FFF76EFF97F84931013387F8493197F804
:1024B00049319BB2B7F82C219A42EAD80023C7F8D9
:1024C0004431002387F84331ABE0D7F84C311A028E
:1024D00007F5A873A3F5A3731B881344C7F8283125
:1024E00007F5A873A3F5A3731A8807F5A873A3F5D6
:1024F000A67311461868FFF72DFF0346A7F826318B
:102500000023C7F83C31FFF7E9FE07F5A873A3F5F0
:102510009E7302221A70D7F828311B0CDAB207F525
:10252000A873A3F59E735A70D7F828311B0ADAB244
:1025300007F5A873A3F59E739A70D7F82831DAB21D
:1025400007F5A873A3F59E73DA700423C7F83C312E
:10255000B7F82631D7F83C211344C7F820310023BF
:1025600087F83B311AE097F83B21D7F84431134400
:1025700007F5A872A2F5A87212681A44D7F83C3180
:10258000591CC7F83C11117807F5A872A2F59E7284
:10259000D15497F83B31013387F83B3197F83B3101
:1025A0009BB2B7F826219A42DDD8002201212348A8
:1025B0000BF042FBD7F82031DAB207F114031146D1
:1025C0001846FFF72FFE012201211C480BF034FBB7
:1025D000D7F84C310133C7F84C3107F5A873A3F590
:1025E000A37300221A80B7F8262107F5A873A3F574
:1025F000A67307F5A871A1F5A67109688A1A1A6071
:10260000B7F82631D7F844211344C7F844310A20DB
:102610000FF0D3FEFFF780FE97F84331013387F8C0
:10262000433197F84331D7F830219A423FF64DAF06
:1026300000BF00BF07F5AA77BD4690BD0004024069
:1026400080B584B000AF03460A46FB711346BB71E8
:102650000B4A07F1080392E8030083E80300FB79C3
:102660003F33DBB27B73BB79FB7307F108010123B6
:10267000082204480EF04EFB00BF1037BD4680BD57
:102680001C610108D00F002080B586B000AF034662
:102690000A46FB711346BB80114A07F10C0392E80E
:1026A000030083E803000023FB750023BB75BB8890
:1026B000BB75BB881B0A9BB2FB75FB793F33DBB252
:1026C0007B74FB7DBB74BB7DFB7407F10C010123A4
:1026D000082204480EF01EFB00BF1837BD4680BD1F
:1026E0001C610108D00F002080B582B000AF786077
:1026F0001E4A7B6813601D4B1B68092B03D01B4BC4
:102700001B680A2B04D1194B1B68184A136020E080
:10271000164B1B68082B05DC144B1B68013B134A46
:10272000136016E0114B1B680B2B03DC0F4B1B686F
:10273000132B05DC0D4B1B68073B0C4A136008E0AC
:102740000A4B1B68132B04DD084B1B68063B074A2A
:1027500013607B68DBB2054A1268D2B219461020BA
:10276000FFF714FB00BF0837BD4680BD241B0020C7
:1027700080B582B000AF0346FB7132200FF01DFE22
:10278000FB79092210211020FFF78CFA0146012362
:1027900008220F480EF0BEFAFB790822092110200A
:1027A000FFF780FA01460123082209480EF0B2FA29
:1027B000FB790A2211211020FFF774FA0146012348
:1027C000082203480EF0A6FA00BF0837BD4680BDB8
:1027D000D00F002080B584B000AF03460A46FB71DD
:1027E0001346BB710B4A07F1080392E8030083E824
:1027F0000300FB793F33DBB27B73BB79FB7307F1DB
:1028000008010123082204480EF084FA00BF1037A3
:10281000BD4680BD1C610108D00F002080B586B088
:1028200000AF03460A46FB711346BB80114A07F10D
:102830000C0392E8030083E803000023FB750023E8
:10284000BB75BB88BB75BB881B0A9BB2FB75FB794C
:102850003F33DBB27B74FB7DBB74BB7DFB7407F144
:102860000C010123082204480EF054FA00BF183767
:10287000BD4680BD1C610108D00F002080B584B02A
:1028800000AF03460A46FB711346BB710C4A07F1C1
:10289000080392E8030083E80300FB793F33DBB2CF
:1028A0007B73FF23BB73BB79FB7307F10801012323
:1028B000082204480EF02EFA00BF1037BD4680BD36
:1028C0001C610108D00F002080B584B000AF034622
:1028D000FB71B54B5B79BC2B1BD1B44B1B78012B27
:1028E00017D132200FF069FDB14B00221A70B14BA5
:1028F00000221A70B04B00221A70B04B01221A70DD
:10290000AF4B00221A70AF4B00221A70AE4B01225F
:102910001A70A54B1B7A6A2B40F0C582A34B1B781B
:10292000022B40F0E28032200FF047FDA74B01223E
:102930001A709F4B00221A709E4B01221A709E4BF8
:1029400000221A709E4B00221A709C4B00221A70B3
:102950009C4B00221A709E4B00221A709D4B1B88C4
:10296000B42B11D89B4B1B881846FDF7C3FD0246BC
:102970000B4604209FED7A3B9FED7B2B9FED7C1B4C
:1029800043EC102B02F02CFA924B1B88B42B16D977
:10299000904B1B88B3F5C87F11D28E4B1B8818460D
:1029A000FDF7A8FD02460B4604209FED6D3B9FED11
:1029B000722B9FED731B43EC102B02F011FA854B29
:1029C0001B88B3F5C87F17D3824B1B8840F28A223D
:1029D000934211D87F4B1B881846FDF78BFD0246AA
:1029E0000B4604209FED5E3B9FED632B9FED641B28
:1029F00043EC102B02F0F4F9764B1B8840F28A224C
:102A0000934217D9734B1B8840F2EE22934211D8A0
:102A1000704B1B881846FDF76DFD02460B460420DF
:102A20009FED4F3B9FED542B9FED551B43EC102B1F
:102A300002F0D6F9674B1B8840F2EE22934217D979
:102A4000644B1B8840F26632934211D8614B1B885D
:102A50001846FDF74FFD02460B4604209FED403B14
:102A60009FED452B9FED461B43EC102B02F0B8F970
:102A7000584B1B8840F26632934216D9554B1B883F
:102A8000B3F5876F11D8534B1B881846FDF732FDFD
:102A900002460B4604209FED323B9FED3B2B9FED02
:102AA0003A1B43EC102B02F09BF94A4B1B88B3F501
:102AB000876F40F2F881474B1B8840F2DC5293420B
:102AC00000F2F181434B1B881846FDF713FD0246C7
:102AD0000B4604209FED223B9FED2D2B9FED2E1BDF
:102AE00043EC102B02F07CF9DDE1304B1B78032B1B
:102AF00040F0958032200FF060FC344B01221A70B8
:102B00002B4B01221A702B4B00221A702B4B0022E8
:102B10001A702B4B00221A70274B00221A70294B77
:102B200000221A702C4B01221A702C4B1B78042B9C
:102B300058D92A4B1B780B2B54D8294B1B681846A5
:102B4000FDF7E8FC02460B4605209FED053B9FED97
:102B5000142B9FED131B43EC102B02F041F9A2E163
:102B600000000000000000003BDF4F8D976E923F99
:102B7000B81E85EB51B89E3F7B14AE47E17A943F77
:102B8000BA490C022B87863F7B14AE47E17A843F1B
:102B9000FCA9F1D24D62603FFCA9F1D24D62503FD9
:102BA0009A9999999999B93F38190020AE1900203E
:102BB000AC190020AB190020AA190020A919002087
:102BC000A8190020AD190020C319002015140020F9
:102BD000C419002044000020C51900204C0000202A
:102BE00048000020864B1B780B2B40F25C81844B05
:102BF0001B781E2B00F25781824B1B681846FDF78D
:102C000089FC02460B4605209FED6B3B9FED6C2B2C
:102C10009FED6B1B43EC102B02F0E2F843E17A4B83
:102C20001B78042B40F0088132200FF0C6FB774B55
:102C300001221A70764B00221A70764B00221A700D
:102C4000754B00221A70754B01221A70744B0022CA
:102C50001A70744B00221A70734B01221A70734B56
:102C600001221A70724B01221A70724B1B88B42B0E
:102C700011D8704B1B881846FDF73CFC02460B46EA
:102C800004209FED4D3B9FED502B9FED511B43ECDE
:102C9000102B02F0A5F8674B1B88B42B16D9654B97
:102CA0001B88B3F5C87F11D2624B1B881846FDF70D
:102CB00021FC02460B4604209FED3F3B9FED462B37
:102CC0009FED471B43EC102B02F08AF8594B1B88F1
:102CD000B3F5C87F17D3574B1B8840F28A22934223
:102CE00011D8544B1B881846FDF704FC02460B46CE
:102CF00004209FED313B9FED382B9FED391B43ECBA
:102D0000102B02F06DF84B4B1B8840F28A22934245
:102D100017D9484B1B8840F2EE22934211D8454BFD
:102D20001B881846FDF7E6FB02460B4604209FED84
:102D30002E3B9FED2F2B9FED2A1B43EC102B02F017
:102D40004FF83C4B1B8840F2EE22934217D9394B87
:102D50001B8840F26632934211D8364B1B881846C6
:102D6000FDF7C8FB02460B4604209FED1F3B9FED7D
:102D7000202B9FED1B1B43EC102B02F031F82D4B49
:102D80001B8840F26632934240F28D80294B1B88AB
:102D90001846FDF7AFFB02460B4604209FED063BAD
:102DA0009FED152B9FED141B43EC102B02F018F830
:102DB00079E000BFAFF300800000000000000000D9
:102DC0009A9999999999B93F3BDF4F8D976E923FA8
:102DD000B81E85EB51B89E3F9A9999999999A93F48
:102DE000B81E85EB51B88E3FFCA9F1D24D62503F21
:102DF000E3A59BC420B0B23F7B14AE47E17A843F89
:102E00004C00002048000020AE19002015140020BE
:102E1000AC190020AA190020A9190020A819002027
:102E2000AB190020AD190020D2190020B0190020E4
:102E3000C619002044000020674B1B78052B32D1B7
:102E400032200FF0BAFA654B01221A70644B00224F
:102E50001A70644B01221A70634B00221A70634B84
:102E600000221A70624B00221A70624B00221A7004
:102E7000614B01221A70614B00221A70604B0122D3
:102E80001A70604B1B781846FDF734FB02460B4660
:102E900005209FED4D3B9FED4E2B9FED4D1B43ECD1
:102EA000102B01F09DFF584B1B7A7C2B1ED14A4BF7
:102EB00006221A70484B1B78062B17D132200FF0D0
:102EC0007CFA474B00221A70464B00221A70464B80
:102ED00000221A70454B00221A70454B00221A70CE
:102EE000444B01221A70494B01221A70464B1B7A3F
:102EF000692B23D100224FF4004145480AF09CFE83
:102F000000224FF4804142480AF096FE384B0022DE
:102F10001A70334B00221A70324B00221A70324B57
:102F200001221A70314B00221A70324B00221A70A3
:102F3000384B00221A70384B01221A70324B5B79E1
:102F4000A42B40F0788132200FF037FA284B1B7801
:102F5000DBB2002B66D0314B1B78042B16D92F4BDC
:102F60001B780B2B12D82E4B1B681846FDF7D2FA94
:102F700002460B4605209FED143B9FED152B9FED60
:102F8000141B43EC102B01F02BFF62E0234B1B784A
:102F90000B2B5ED9214B1B781E2B5AD8204B1B685C
:102FA0001846FDF7B7FA02460B4605209FED063B93
:102FB0009FED072B9FED061B43EC102B01F010FF3C
:102FC00047E000BFAFF300800000000000000000F9
:102FD0009A9999999999B93FAE1900201514002032
:102FE000AB190020AA190020A9190020A819002057
:102FF000AC190020AD190020C7190020CD19002000
:10300000D21900206919002038190020C8190020A1
:1030100000100240B0190020C31900204C0000200D
:1030200048000020AC4B1B78DBB2002B11D0AB4B1F
:103030001B781846FDF75EFA02460B4605209FED09
:10304000A03B9FEDA12B9FEDA01B43EC102B01F0AB
:10305000C7FEA34B1A88A34B1A80A34B1A78A34B25
:103060001A70A34B1B781A46A24B1A60A24B1B681E
:10307000A24A1360A24B1B68A24A1360A24B1A78A3
:10308000A24B1A70A24B1B78013BDAB2A14B1A700B
:10309000A14B1A78914B1A70A04B1A789F4B1A705B
:1030A0009F4B1A789E4B1A709E4B1A789D4B1A7044
:1030B0009D4B1A789C4B1A709C4B1A789B4B1A703C
:1030C0009B4B1A789A4B1A709A4B1A78994B1A7034
:1030D000994B1A78984B1A70984B1A78974B1A702C
:1030E000974B1A78964B1A70964B01221A70964B92
:1030F00001221A70954B00221A70954B00221A700B
:10310000944B00221A70944B00221A70934B0022A9
:103110001A70934B00221A70924B00221A70924B35
:1031200000221A70914B00221A70914B00221A70E3
:10313000904B00221A70904B00221A708F4B002285
:103140001A708F4B00221A708E4B00221A708E4B11
:1031500000221A708D4B00221A708D4B00221A70BB
:103160008C4B00221A708C4B00221A708B4B002261
:103170001A708B4B19788A4B1B78013BDAB201230A
:103180001020FEF78FFD01460123082285480DF02F
:10319000C1FD854B1978844B1B78073BDAB20123BC
:1031A0001020FEF77FFD0146012308227D480DF027
:1031B000B1FD7E4B19787D4B1B780D3BDAB20123B4
:1031C0001020FEF76FFD01460123082275480DF01F
:1031D000A1FD774B1978764B1B781C3BDAB20123A3
:1031E0001020FEF75FFD0146012308226D480DF017
:1031F00091FD704B19786F4B1B785F33DAB2012366
:103200001020FEF74FFD01460123082265480DF00E
:1032100081FD0120FFF7ACFA0023FB6007E0664A5E
:10322000FB68134400221A70FB680133FB60FB68E3
:10323000082BF4DD40E0604B5B79C32B03D05E4B81
:103240005B79F12B01D1FDF7E1FE5B4B5B79E22B62
:1032500032D13C4B01221A70584B01221A70584B44
:1032600000221A701C4B00221A70564B00221A7052
:10327000554B00221A70554B00221A70544B0022F5
:103280001A70544B01221A70324B00221A70384BBC
:1032900001221A70114B1B781846FDF72BF90246D4
:1032A0000B4600209FED0A3B9FED072B9FED061B71
:1032B00043EC102B01F094FD0023BB6094E000BFB1
:1032C00000000000000000009A9999999999B93F6F
:1032D000333333333333C33FAA1900206919002035
:1032E0003400002044000020370000204C00002063
:1032F00036000020480000202C0000203C00002068
:1033000030000020400000205D19002067190020D7
:103310006419002068190020651900205000002061
:10332000E419002051000020E5190020520000207F
:103330004D000020530000204E00002054000020CB
:103340004F00002015140020C2190020CB190020C6
:10335000CC190020CD190020C9190020CA1900205D
:10336000CE190020CF190020D0190020D11900203B
:10337000D2190020D3190020F7190020F8190020D5
:10338000F9190020FA190020FB190020FC1900206F
:10339000FD190020FE190020FF190020001A00204E
:1033A00051190020D00F002052190020531900207D
:1033B000541900205519002038190020AF19002099
:1033C000AB190020A9190020A8190020AC19002071
:1033D000AD190020C7190020074ABB68134400221A
:1033E0001A70BB680133BB60BB68082BF4DD00BFFB
:1033F00000BF1037BD4680BD381900200000000016
:1034000080B500AF404B1B7807EE903AB8EE677A74
:10341000DFED3E6AC6EE877A3D4BC3ED007A3D4B49
:103420001B6807EE903AF8EEE76A3A4B1B6807EE26
:10343000903AB8EEE77A384B1B6807EE903AF8EE10
:10344000E77A77EE277A86EEA77A314BD3ED007ACA
:1034500067EE277A314BC3ED007A304B1B68184674
:10346000FDF76AF826A3D3E90023FCF707FF02461D
:103470000B4610461946FDF7AFFB0346274A13607B
:10348000234B93ED007A254BD3ED007A77EE677AE4
:10349000234BC3ED007A214BD3ED007A9FED217AC7
:1034A00067EE877AFDEEE77A17EE902A1E4B1A60D8
:1034B0001B4BD3ED007A9FED1B7A67EE877AFDEE0A
:1034C000E77A17EE902A194B1A60194B1B7807EE12
:1034D000903AF8EE677ADFED176A87EEA67A124B1C
:1034E0001B6807EE903AF8EEE77A67EE277AFDEE72
:1034F000E77A17EE902A104B1A6000BF80BD00BF1C
:103500009A9999999999C93F4C00002000007042FE
:10351000A41300203C00002040000020A81300203D
:10352000AC13002000007A44301900203419002028
:10353000671900200000C8426001002080B400AF7D
:103540005B4B1B68952B03DD594B4FF4FA721A60E5
:10355000574B1B685A1C56490A60962B37DC554B53
:103560001B78002B33D0544B1B88962B2FD8534BF2
:103570001B78DBB2002B2AD0514B1B68002B05D1E6
:10358000504B1D221A704E4B01221A604E4B1B7875
:103590001C2B15D84D4B1B685A1C4C490A600E2B2E
:1035A0000EDD494B1A78474B1B789A4208D2454B9F
:1035B0001B78013BDAB2434B1A70444B00221A606D
:1035C000434B01221A60434B02221A6003E03E4B38
:1035D0001A783C4B1A703B4B1B7807EE903AB8EECA
:1035E000677ADFED3D6AC6EE877A3C4BC3ED007A21
:1035F000374B1B6807EE903AF8EEE76A344B1B68CE
:1036000007EE903AB8EEE77A324B1B6807EE903A35
:10361000F8EEE77A77EE277A86EEA77A2F4BD3ED8E
:10362000007A67EE277A2E4BC3ED007A2B4B93ED91
:10363000007A2B4BD3ED007A77EE677A294BC3EDF6
:10364000007A274BD3ED007A9FED277A67EE877AD1
:10365000FDEEE77A17EE902A244B1A60214BD3ED4A
:10366000007A9FED217A67EE877AFDEEE77A17EE12
:10367000902A1F4B1A601F4B1B7807EE903AF8EE0A
:10368000677ADFED1D6A87EEA67A184B1B6807EE96
:10369000903AF8EEE77A67EE277AFDEEE77A17EED2
:1036A000902A164B1A6000BFBD465DF8047B704738
:1036B000481B0020381B002044000020AB190020CC
:1036C0004C1B00204C00002037000020501B002025
:1036D0003C0000204000002000007042A4130020A5
:1036E000A8130020AC13002000007A4430190020F9
:1036F00034190020671900200000C8426001002032
:1037000080B500AF3F4B1B8819460120FFF786F8B4
:103710003D4B1B7819460220FFF75CF83B4B1B78AA
:1037200019460320FFF756F8394B1B781946052038
:10373000FFF750F8374B1B68DBB219460620FFF73E
:1037400049F8354B93F90030DBB219460720FFF7F3
:1037500095F8324B1B7819460820FFF73BF8304BA1
:103760001B7819460920FFF735F82E4B1B781946B0
:103770001420FFF72FF82C4B1B7819461520FFF764
:1037800029F82A4B1B7819461620FFF723F8284BF7
:103790001B7819461720FFF71DF8264B1B78194692
:1037A0001820FFF717F8244B1B7819461920FFF74C
:1037B00011F8224B1B7819461A20FFF70BF8204B03
:1037C0001B7819462120FFF705F81E4B1B78194678
:1037D0002220FEF7FFFF1C4B1B7819462320FEF723
:1037E000F9FF1A4B1B68DBB219462420FEF7F2FFE3
:1037F000174B1B68DBB219462520FEF7EBFF00BF15
:1038000080BD00BF340000203600002037000020BB
:103810005D19002060190020380000206419002084
:103820006519002050000020E419002051000020FC
:10383000E5190020520000204D0000205300002018
:103840004E000020540000204F0000202C000020DB
:103850003000002080B584B000AF78600A4A07F1DC
:10386000080392E8030083E803007B68DBB2FB7384
:1038700007F108010123082204480DF04BFA00BFAC
:103880001037BD4680BD00BF30610108D00F002059
:1038900080B584B000AF0346FB710A4A07F1080304
:1038A00092E8030083E80300FB79FB7307F108014A
:1038B0000123082204480DF02DFA00BF1037BD4641
:1038C00080BD00BF38610108D00F002080B584B0F2
:1038D00000AF0346FB710A4A07F1080392E80300B0
:1038E00083E80300FB79FB7307F108010123082239
:1038F00004480DF00FFA00BF1037BD4680BD00BF71
:1039000040610108D00F002080B584B000AF0346AD
:10391000FB710A4A07F1080392E8030083E80300F9
:10392000FB79FB7307F108010123082204480DF01D
:10393000F1F900BF1037BD4680BD00BF48610108E6
:10394000D00F002080B584B000AF0346FB710A4A57
:1039500007F1080392E8030083E80300FB79FB7397
:1039600007F108010123082204480DF0D3F900BF34
:103970001037BD4680BD00BF50610108D00F002048
:1039800080B584B000AF0346FB710A4A07F1080313
:1039900092E8030083E80300FB79FB7307F1080159
:1039A0000123082204480DF0B5F900BF1037BD46C9
:1039B00080BD00BF58610108D00F002080B584B0E1
:1039C00000AF0346FB710A4A07F1080392E80300BF
:1039D00083E80300FB79FB7307F108010123082248
:1039E00004480DF097F900BF1037BD4680BD00BFF9
:1039F00060610108D00F002080B485B000AF87ED72
:103A0000010A1E4B1B681E4A9B0013447A681A6009
:103A10001A4B1B68591C1B4B83FB01235A10CB17F5
:103A2000D21A13469B001344CA1A144B1A604FF063
:103A30000003FB600023BB600EE0114ABB689B00E3
:103A40001344D3ED007A97ED037A77EE277AC7ED2A
:103A5000037ABB680133BB60BB68042BEDDD97EDD7
:103A6000037AF1EE046AC7EE267A074BC3ED007ABB
:103A700000BF1437BD465DF8047B70478C130020EF
:103A800078130020676666669013002080B584B0C6
:103A900000AF0346FB710A4A07F1080392E80300EE
:103AA00083E80300FB79FB7307F108010123082277
:103AB00004480DF02FF900BF1037BD4680BD00BF90
:103AC00068610108D00F002080B584B000AF0346C4
:103AD000FB710A4A07F1080392E8030083E8030038
:103AE000FB79FB7307F108010123082204480DF05C
:103AF00011F900BF1037BD4680BD00BF70610108DD
:103B0000D00F002080B584B000AF0346FB710A4A95
:103B100007F1080392E8030083E80300FB79FB73D5
:103B200007F108010123082204480DF0F3F800BF53
:103B30001037BD4680BD00BF78610108D00F00205E
:103B4000B0B582B000AF1C4B1B881846FCF7E2FCF6
:103B50004FF00002194BFCF747FD02460B46144696
:103B60001D46174B1B681846FCF7E6FC10A3D3E96B
:103B70000023FCF739FD02460B4620462946FCF798
:103B80005DFE02460B46C7E900234FF000020D4BD5
:103B9000D7E90001FCF772FB02460B4643EC172BFA
:103BA000B0EE470AF0EE670A0837BD46B0BD00BF69
:103BB000986E1283C0AA30404400002000000440E8
:103BC000A81300200000F03F80B584B000AF254B63
:103BD000D3ED007A9FED247A67EE877A17EE900A8C
:103BE000FCF7AAFC02460B46C7E902231F4B1B88C1
:103BF0001846FCF78FFCD7E90223FCF71FFE0246AC
:103C00000B46104619464FF000024FF08043FCF778
:103C100015FE02460B46104619464FF00002144BA3
:103C2000FCF7E2FC02460B46C7E900234FF0000216
:103C3000104BD7E90001FCF721FB02460B4610466A
:103C400019464FF000020A4BFCF718FB02460B46E0
:103C500043EC172BB0EE470AF0EE670A1037BD466B
:103C600080BD00BFA813002000007A44440000205B
:103C7000000059400000F03F80B586B000AF034619
:103C8000FB80104A07F10C0392E8030083E803006D
:103C90000023FB750023BB75FB88BB75FB881B0AE3
:103CA0009BB2FB75FB7DBB74BB7DFB7407F10C0104
:103CB0000123082204480DF02DF800BF1837BD4637
:103CC00080BD00BF80610108D00F002080B588B0A2
:103CD00000AF324A07F1100392E8030083E80300C3
:103CE0000023FB770023BB770023BB612C4B1B78A1
:103CF00007EE903AB8EEE77A2A4BD3ED007A27EE3A
:103D0000277ADFED296AC7EE267A284BC3ED007AC1
:103D1000264BD3ED007A9FED267A67EE877AFDEE8B
:103D2000E77A17EE903ABB610023FB6007F10C03C2
:103D3000BA692049184611F0F9FB07F10C0319463E
:103D40001D4811F0F3FB3B7B3B717B7B7B71BB7BA5
:103D5000BB71FB7BFB7100233B723B1D10220021DA
:103D6000184611F0D9FB03469AB2144B1A80134B34
:103D70001B88BB77114B1B881B0A9BB2FB77FB7F11
:103D8000BB75BB7FFB7507F11001012308220C48AE
:103D90000CF0C0FF00BF2037BD4680BD8861010820
:103DA0004C000020B413002000007A44E0190020E9
:103DB0000000C8422461010828610108921A00200D
:103DC000D00F002080B588B000AF344A07F110034F
:103DD00092E8030083E803000023FB770023BB770E
:103DE0000023BB612E4BD3ED007A77EEA77ADFED8F
:103DF0002D6A86EEA77A2C4BD3ED007A27EE277A30
:103E0000DFED2A6AC7EE267A294BC3ED007A284BEC
:103E1000D3ED007A9FED277A67EE877AFDEEE77A99
:103E200017EE903ABB610023FB6007F10C03BA69FF
:103E30002149184611F07AFB07F10C0319461F4877
:103E400011F074FB3B7B3B717B7B7B71BB7BBB715C
:103E5000FB7BFB7100233B723B1D102200211846A7
:103E600011F05AFB03469AB2154B1A80144B1B886B
:103E7000BB77134B1B881B0A9BB2FB77FB7FBB7581
:103E8000BB7FFB7507F11001012308220D480CF0E0
:103E900041FF00BF2037BD4680BD00BF88610108DB
:103EA000DC13002000007042D813002000007A4488
:103EB000E01900200000C8422461010828610108BF
:103EC000921A0020D00F002080B584B000AF0346C6
:103ED000FB710A4A07F1080392E8030083E8030034
:103EE000FB79FB7307F108010123082204480CF059
:103EF00011FF00BF1037BD4680BD00BF90610108B3
:103F0000D00F002080B584B000AF0346FB710A4A91
:103F100007F1080392E8030083E80300FB79FB73D1
:103F200007F108010123082204480CF0F3FE00BF4A
:103F30001037BD4680BD00BF98610108D00F00203A
:103F400080B584B000AF0346FB710A4A07F108034D
:103F500092E8030083E80300FB79FB7307F1080193
:103F60000123082204480CF0D5FE00BF1037BD46DF
:103F700080BD00BFA0610108D00F002080B584B0D3
:103F800000AF0346FB710A4A07F1080392E80300F9
:103F900083E80300FB79FB7307F108010123082282
:103FA00004480CF0B7FE00BF1037BD4680BD00BF0F
:103FB000A8610108D00F002080B500AF094B1B6835
:103FC0004FF4FA725A634FF4FA700EF0F6F9054B9B
:103FD0001B6800225A634FF4FA700EF0EEF900BF2E
:103FE00080BD00BF880F002080B487B000AF87ED90
:103FF000010A1E4B1B785A1CD1B21C4A11701C4A74
:104000009B0013447A681A60184B1B78632B02D903
:10401000164B00221A704FF000037B6100233B61B6
:104020000EE0134A3B699B001344D3ED007A97EDF1
:10403000057A77EE277AC7ED057A3B6901333B6154
:104040003B69632BEDDD97ED057ADFED0A6AC7EE7C
:10405000267AC7ED037AFB6807EE903AB0EE670A5E
:104060001C37BD465DF8047B704700BFDC120020A2
:104070004C1100200000C84290B583B000AFAE4B99
:1040800000221A70AD4B01221A70AD4B1B885A2BBF
:1040900003D8AA4B01221A70A3E0A94B1B8807EE94
:1040A000903AB8EEE77AA74BD3ED007A77EE677ACD
:1040B000B2EE0E7AF4EEC77AF1EE10FA0FD8A04BFA
:1040C0001B8807EE903AB8EEE77A9E4BD3ED007A64
:1040D00077EE677AF5EEC07AF1EE10FA21DA994BB5
:1040E00093ED007A964B1B8807EE903AF8EEE77A4C
:1040F00077EE677AB2EE0E7AF4EEC77AF1EE10FA46
:104100006FD8904B93ED007A8D4B1B8807EE903A59
:10411000F8EEE77A77EE677AF5EEC07AF1EE10FA0C
:104120005FDB864B00221A70854B1B8807EE903AA6
:10413000B8EEE77A834BD3ED007AB4EEE77AF1EE8E
:1041400010FA20D57E4B1B8807EE903AB8EEE77A3E
:104150007C4BD3ED007AB4EE677AF1EE10FA40D0E2
:10416000794BD3E900014FF00002784BFCF784F85B
:1041700002460B4676490C6810461946FCF70CFDC2
:10418000034663632DE06E4B1B8807EE903AB8EE52
:10419000E77A6C4BD3ED007AB4EEE77AF1EE10FAE1
:1041A0001FDD674B1B8807EE903AB8EEE77A654B48
:1041B000D3ED007AB4EE677AF1EE10FA11D0624BCB
:1041C000D3E900014FF00002604BFCF757F80246BC
:1041D0000B465F490C6810461946FCF7DDFC0346A8
:1041E000636308F061FA03461A465A4B1A600122CB
:1041F0004FF40041584809F01FFD01224FF480415F
:10420000554809F019FD554B1B780133DAB2534B71
:104210001A70534B1B780133DAB2514B1A70514B61
:104220001A68514B1B68D31A18460EF0C6F808F0EE
:104230003BFA03461A464D4B1A604C4B1A68454BE5
:104240001B68D31A4A4A13603C4B00221A70494B30
:104250001A78494B1A70494BD3ED007AFCEEE77A95
:10426000C7ED017A3B79DAB2454B1A70354B1B68C2
:10427000444A1360444B1B78002B0AD000224FF4B1
:104280008041354809F0D8FC374B1B6818460EF0C2
:1042900094F83E4B1A783E4B1A703E4B1B683E4AD0
:1042A0001360254B01221A7000224FF400412A4866
:1042B00009F0C2FC00224FF48041274809F0BCFC01
:1042C000364B00221A60364B00221A70354B4FF0E5
:1042D00000021A60344B4FF000021A60334B4FF06B
:1042E00000021A60324B4FF000021A60314B4FF05F
:1042F00000021A60304B4FF000021A602F4B4FF053
:1043000000021A602E4B01221A702E4B1B680133DB
:104310002C4A13602C4B1B6818460EF04EF8284BA5
:1043200000221A70194B1B781846FFF709FE00BFD0
:104330000C37BD4690BD00BF141400201614002099
:1043400044000020B4130020281400200000E03FA7
:10435000400F0020B419002000100240C0190020B6
:10436000C11900203019002060010020B819002078
:10437000BC1900208F1A00201C14002054130020A8
:10438000701300200414002067190020901A0020E8
:10439000281B0020341B00200814002028000020C7
:1043A0001C19002020190020441B0020C4130020E9
:1043B00018190020E8130020F81300200014002032
:1043C000011A00202C1900203419002080B500AFFC
:1043D0003C4B1B781A463C4B1A603C4B00221A702F
:1043E00001224FF400413A4809F026FC01224FF423
:1043F0008041374809F020FC364B1A68364B1B6861
:10440000D31A18460DF0D9FF344B01221A70344BE1
:104410001A78344B1A70344B1B78002B0AD00022C8
:104420004FF480412A4809F007FC2B4B1B681846C3
:104430000DF0C3FF2D4B1A782D4B1A70234B012220
:104440001A7000224FF40041214809F0F5FB0022C8
:104450004FF480411E4809F0EFFB264B00221A6002
:10446000254B00221A70254B4FF000021A60244B96
:104470004FF000021A60234B4FF000021A60224BEB
:104480004FF000021A60214B4FF000021A60204BDF
:1044900001221A701F4B1B6801331E4A13601E4B0A
:1044A0001B6818460DF089FF194B00221A700F4B3C
:1044B0001B781846FFF744FD084B00221A7000BF16
:1044C00080BD00BF360000204800002014140020EA
:1044D0000010024030190020600100201614002056
:1044E0008F1A00201C14002067190020901A002049
:1044F000281B0020280000201C1900202019002063
:10450000441B0020C413002018190020F8130020B9
:10451000011A00202C1900203419002090B583B016
:1045200000AF794B00221A70784B01221A70784B39
:1045300000221A70774B1B885A2B03D8734B012229
:104540001A70A3E0734B1B8807EE903AB8EEE77A37
:10455000714BD3ED007A77EE677AB2EE0E7AF4EE15
:10456000C77AF1EE10FA0FD86A4B1B8807EE903A23
:10457000B8EEE77A684BD3ED007A77EE677AF5EE1E
:10458000C07AF1EE10FA21DA634B93ED007A614BB9
:104590001B8807EE903AF8EEE77A77EE677AB2EE8C
:1045A0000E7AF4EEC77AF1EE10FA6FD85A4B93ED0B
:1045B000007A584B1B8807EE903AF8EEE77A77EED0
:1045C000677AF5EEC07AF1EE10FA5FDB4F4B00220E
:1045D0001A70504B1B8807EE903AB8EEE77A4E4BB4
:1045E000D3ED007AB4EEE77AF1EE10FA20D5494B1C
:1045F0001B8807EE903AB8EEE77A474BD3ED007A86
:10460000B4EE677AF1EE10FA40D0444BD3E90001E2
:104610004FF00002424BFBF72FFE02460B4641498A
:104620000C6810461946FCF7B7FA034663632DE0A1
:10463000384B1B8807EE903AB8EEE77A364BD3ED4D
:10464000007AB4EEE77AF1EE10FA1FDD314B1B88E9
:1046500007EE903AB8EEE77A2F4BD3ED007AB4EE3E
:10466000677AF1EE10FA11D02C4BD3E900014FF02C
:1046700000022B4BFBF702FE02460B4629490C6851
:1046800010461946FCF788FA0346636301224FF48B
:104690000041254809F0D0FA01224FF48041224818
:1046A00009F0CAFA214B1B6818460DF086FE174B1D
:1046B00000221A701E4B1A781E4B1A701E4BD3ED37
:1046C000007AFCEEE77AC7ED017A3B79DAB21B4B50
:1046D0001A701B4B1A781B4B1A701B4B1B78002B44
:1046E0000AD000224FF400410F4809F0A5FA174BF9
:1046F0001B6818460DF061FE00F0E0F90123184632
:104700000C37BD4690BD00BF1414002016140020C5
:10471000B119002044000020B41300202814002008
:104720000000E03F400F0020001002403019002040
:104730008F1A00201C140020541300207013002036
:10474000901A0020281B002067190020600100201B
:1047500080B582B000AF494B93F900301A46484B00
:104760001A60474B1B68C3F16402464B1B689A42B0
:1047700033DC454B00221A7001224FF400414348BC
:1047800009F05AFA01224FF48041404809F054FAE6
:104790003F4B01221A703F4BD3ED007AFCEEE77AD3
:1047A000C7ED017A3B79DAB23B4B1A703B4B1B7871
:1047B000002B0AD000224FF40041344809F03CFAA3
:1047C000374B1B6818460DF0F8FD364B1A78364B00
:1047D0001A70364B4FF000021A60324B1A78344B85
:1047E0001B789A4246D9284B01221A7000224FF4B6
:1047F0000041264809F020FA00224FF48041234866
:1048000009F01AFA2B4B01221A702B4B1B6801334B
:10481000294A1360294B00221A60294B00221A7082
:10482000284B4FF000021A60274B4FF000021A602D
:10483000264B4FF000021A60254B4FF000021A6021
:10484000244B4FF000021A60234B4FF000021A6015
:10485000224B4FF000021A60C8200DF0AEFD154B40
:1048600000221A700F4B1B781846FFF769FB084BA4
:1048700000221A7000BF0837BD4680BD38000020F6
:10488000601900205813002014140020001002406A
:104890001614002054130020701300206719002004
:1048A00060010020901A0020281B0020181400200E
:1048B00069190020011A00202C190020280000206E
:1048C0001C19002020190020441B0020C4130020C4
:1048D00018190020E8130020F8130020001400200D
:1048E00080B582B000AF4B4B93F900301A464A4B6B
:1048F0001A60494B1B68C3F16402484B1B689A421B
:1049000037DC474B00221A7001224FF40041454822
:1049100009F092F901224FF48041424809F08CF9E4
:10492000414B01221A70414B1A78414B1A70414B8E
:10493000D3ED007AFCEEE77AC7ED017A3B79DAB283
:104940003D4B1A703D4B1B78002B0AD000224FF4D0
:104950000041344809F070F9394B1B6818460DF0D6
:104960002CFD384B1A78384B1A70384B4FF0000238
:104970001A60344B1A78364B1B789A4246D9284B2A
:1049800001221A7000224FF40041264809F054F920
:1049900000224FF48041234809F04EF92D4B0122AB
:1049A0001A702D4B1B6801332B4A13602B4B0022CE
:1049B0001A602B4B00221A702A4B4FF000021A602B
:1049C000294B4FF000021A60284B4FF000021A608A
:1049D000274B4FF000021A60264B4FF000021A607E
:1049E000254B4FF000021A60244B4FF000021A6072
:1049F000C8200DF0E2FC174B00221A70114B1B78F7
:104A00001846FFF79DFA084B00221A7000BF0837BE
:104A1000BD4680BD380000206019002058130020DA
:104A20001414002000100240161400208F1A0020D9
:104A30001C1400205413002070130020671900205C
:104A400060010020901A0020281B0020181400206C
:104A500069190020011A00202C19002028000020CC
:104A60001C19002020190020441B0020C413002022
:104A700018190020E8130020F8130020001400206B
:104A800080B500AF0B4B1B78002B05D00A4B0022E2
:104A90001A70FFF743FD0BE0064B1B7883F0010310
:104AA000DBB2002B04D0044B01221A70FFF750FE3A
:104AB00000BF80BDB0190020B119002080B500AF43
:104AC0002B4B01221A7000224FF40041294809F0B3
:104AD000B3F800224FF48041264809F0ADF8264B88
:104AE00001221A70254B1B680133244A13603220BF
:104AF0000DF063FC224B00221A70224B00221A6038
:104B0000214B00221A70214B4FF000021A60204BFB
:104B10004FF000021A601F4B4FF000021A601E4B4C
:104B20004FF000021A601D4B4FF000021A601C4B40
:104B30004FF000021A60114B1B6801330F4A1360DB
:104B4000184B1B6818460DF038FC174B1B7818469D
:104B5000FFF7F6F9134B1B68643B18460DF02DFC6C
:104B6000124B00221A70064B01221A7000BF80BD42
:104B70001414002000100240011A00202C190020FB
:104B8000B0190020280000201C1900202019002046
:104B9000441B0020C413002018190020E813002033
:104BA000F813002034190020901A0020B1190020B9
:104BB00080B582B000AF504B32221A704F4B0022AA
:104BC0001A704F4B1B78012B40F091804D4B002207
:104BD0001A7001224FF400414B4809F02DF80122D0
:104BE0004FF48041484809F027F8484B1B6867227A
:104BF0005A6342F210700DF0E0FB454B01221A702F
:104C0000444B1B68DAB2444B1A70434B00221A70B3
:104C1000424B1A78424B1A70424B4FF000021A6016
:104C2000414B1A88414B1A80414B01221A70354B77
:104C300001221A7000224FF40041334808F0FCFFB3
:104C400000224FF48041304808F0F6FF2F4B1B68DC
:104C50004B225A63374B1B680133364A136040F6C8
:104C6000AC500DF0AAFB324B00221A702B4B1B7874
:104C70001846FFF765F9264B00221A70204B0222D6
:104C80001A702D4B1A78254B1B78B2FBF3F3DBB26D
:104C900007EE903AF8EEE77AC7ED017A264B1B78DB
:104CA00007EE903AB8EEE77AD7ED016AC6EE877A5A
:104CB0009FED227A67EE877A214BC3ED007AD7ED1C
:104CC000017AB2EE047AF4EEC77AF1EE10FA0EDB56
:104CD0001B4BD3ED007AB2EE0E7AF4EEC77AF1EE0A
:104CE00010FA04DB164B1B6807EE903AFFE7B0EEB4
:104CF000670A0837BD4680BD691900204C000020B6
:104D0000AF1900201414002000100240400F0020B2
:104D100016140020581300201C140020901A0020A4
:104D2000281B002018140020441300202A1B0020F8
:104D3000011A00202C1900208F1A00200000C84200
:104D4000DC19002080B500AF1C4B1B68002B06D07F
:104D50001B4B1B7883F00103DBB2002B1BD0174BDE
:104D60001B680133154A1360164B4FF000021A609E
:104D700000224FF40041144808F05EFF00224FF477
:104D80008041114808F058FF104B1B684B225A63B2
:104D90000B4B01221A700E4B1B68662B03DC40F292
:104DA000DC500DF00AFB0B4B01221A700A4B1B78EA
:104DB0001846FFF7C5F800BF80BD00BF541B002098
:104DC000581B0020D413002000100240400F002088
:104DD00058130020A9190020901A0020000000009C
:104DE00080B58CB002AF87ED080B87ED061B87ED11
:104DF000042B87ED023B7860D7E90801FBF7A4FE9E
:104E000003461846FBF786FB02460B461849C1E9E4
:104E10000023002301930123009397ED022B97EDCC
:104E2000041B97ED060B124B124A1349134806F068
:104E3000BFFC0121114806F0F1FD7B6819460F48BF
:104E400006F060FF9FED061B9FED070B0B4806F079
:104E500003FE00BF2837BD4680BD00BFAFF3008012
:104E600000000000000064400000000000C052404C
:104E7000301400202814002020000020280D0020DD
:104E800080B584B000AF944B1B785A2B40F07181F1
:104E9000914B5B78A52B40F06C818F4BDB78832B9B
:104EA00040F067818C4B1B79102B40F062818A4B5C
:104EB0005B79952B40F05D81874B1B7AFF2B25D1C9
:104EC000854B5B7AFF2B21D1844B00221A70834BD8
:104ED00000225A70814B00229A707F4BDB7903F0DD
:104EE0000F03DAB27D4BDA707C4B01221A7100237A
:104EF000FB6007E0784AFB68134400221A70FB68E5
:104F00000133FB60FB680B2BF4DD94E0724B5B7AA2
:104F1000FF2B29D1704B9B7AFF2B25D16F4B0022A1
:104F20001A706E4B00225A706B4BDB7903F00F0343
:104F3000DAB26A4B9A70684B1B7A03F00F03DAB24D
:104F4000664BDA70654B02221A710023BB6007E0E2
:104F5000614ABB68134400221A70BB680133BB600E
:104F6000BB680B2BF4DD66E05B4B9B7AFF2B2DD1EE
:104F7000594BDB7AFF2B29D1584B00221A70564B24
:104F8000DB7903F00F03DAB2544B5A70524B1B7AA1
:104F900003F00F03DAB2514B9A704F4B5B7A03F078
:104FA0000F03DAB24D4BDA704C4B03221A71002317
:104FB0007B6007E0484A7B68134400221A707B68D4
:104FC00001337B607B680B2BF4DD34E0424BDB7AF2
:104FD000FF2B30D1404B1B7BFF2B2CD13E4BDB7981
:104FE00003F00F03DAB23D4B1A703B4B1B7A03F010
:104FF0000F03DAB2394B5A70374B5B7A03F00F0369
:10500000DAB2364B9A70344B9B7A03F00F03DAB264
:10501000324BDA70314B04221A7100233B6007E0F7
:105020002D4A3B68134400221A703B6801333B60F1
:105030003B680B2BF4DD2A480BF042FF274B1B7813
:105040001A465201D21A92001344DB009AB2234B43
:105050005B78194689000B441946880019460346B7
:105060000B449B009BB213449AB21C4B9B7819468D
:1050700089000B445B009BB213449BB2174AD27861
:1050800013449AB2174B1A80174B1B78002B2FD062
:10509000144B1B88042B0ED9124B1B88B3F5967F3B
:1050A00009D8104B1A88114B1A800E4B1B881946D1
:1050B0000120FDF7B3FB0B4B1B88042B02D8094BD7
:1050C00005221A80074B1B88B3F5967F3CD9054B08
:1050D0004FF496721A8037E04419002058190020C6
:1050E000D00F002034000020381B00204400002096
:1050F000224B1B78002B27D0214B1B88B3F5967FC2
:105100000FD31F4B1B8840F2DC52934209D81C4B33
:105110001A881C4B1A801A4B1B8819460120FDF770
:105120007DFB174B1B88B3F5967F03D2144B4FF4CE
:1051300096721A80124B1B8840F2DC52934203D9BC
:105140000F4B40F2DC521A800D4B1B88132B0CD9ED
:105150000B4B1B8840F2DC52934206D8084B1B884D
:1051600019460120FDF75AFB03E0054B1A88044B52
:105170001A8000BF1037BD4680BD00BF391B00201C
:10518000340000204400002080B500AF024809F040
:105190001DFF00BF80BD00BFE80E002080B584B0B9
:1051A00000AF24233B723B1D00210A461A800A46A9
:1051B0009A700023FB60002210211B4808F03CFD80
:1051C00007F108014FF0FF330122184809F087FF6B
:1051D000391D4FF0FF33032214480AF0C4F80122AE
:1051E0001021114808F028FD3B791A047B791B0235
:1051F0001343BA791343FB60FB686FF07F4293421D
:1052000001D101230CE0FB6803F40003002B03D061
:10521000FB6843F07F43FB60054AFB681360002393
:1052200018461037BD4680BD00000240E80E002041
:105230009413002080B588B000AF274A07F110030F
:1052400092E8030083E803000023FB770023BB7789
:105250000023BB61214BD3ED007AFDEEE77A17EE18
:10526000903ABB610023FB6007F10C03BA691C494B
:10527000184610F05BF907F10C031946194810F0B5
:1052800055F93B7B3B717B7B7B71BB7BBB71FB7BB4
:10529000FB7100233B723B1D10220021184610F0C9
:1052A0003BF903469AB2104B1A800F4B1B88BB7711
:1052B0000D4B1B881B0A9BB2FB77FB7FBB75BB7F2B
:1052C000FB7507F110010123082208480BF022FDAD
:1052D00000BF2037BD4680BD586101082419002059
:1052E0002461010828610108921A0020D00F0020D3
:1052F00080B483B000AF78607B6807EE903AB8EE78
:10530000677ADFED196AC7EE267A9FED187A67EEA5
:10531000877A174BC3ED007A7B6807EE903AB8EEB8
:10532000677ADFED116AC7EE267A9FED127A67EE93
:10533000877A114BC3ED007A0F4BD3ED007A9FEDC6
:105340000D7AF4EEC77AF1EE10FA02DB0A4B0B4A43
:105350001A60094B1B6807EE903AB0EE670A0C37EB
:10536000BD465DF8047B7047B0DEBD4A0000C84210
:105370002819002000007A442419002000007A44F3
:1053800080B483B000AF87ED010A1B4B93ED007A28
:105390001A4BD3ED007A77EE677A194BC3ED007A9A
:1053A000174B93ED007ADFED176AC7EE267A9FED73
:1053B000167A67EE877A154BC3ED007A0E4B1B68A1
:1053C0000E4A1360114BD3ED007A9FED117A67EE10
:1053D000877A9FED0C7A27EE877A0E4BD3ED007A11
:1053E00077EE277A0B4BC3ED007A00BF0C37BD4632
:1053F0005DF8047B704700BF68130020A0130020F5
:10540000EC1300200AD7233CCDCCCC3C3C1B002025
:1054100000007A44401B00202DE9B04300AF4A4B06
:105420001B681846FBF788F83FA3D3E90023FBF776
:10543000DBF802460B4614461D46434B1B681846D4
:10544000FBF77AF802460B4620462946FBF7CCF8D4
:1054500002460B4614461D463B4B1B681846FBF79D
:105460006BF802460B4620462946FBF7BDF802467C
:105470000B4614461D46344B1B681846FBF75CF878
:105480002BA3D3E90023FBF7AFF802460B46904667
:1054900099462D4B1B681846FBF74EF802460B4603
:1054A00040464946FBF7A0F802460B4620462946EF
:1054B000FAF7E2FE02460B4614461D46224B1B68D5
:1054C0001846FBF739F81CA3D3E90023FBF78CF847
:1054D00002460B4620462946FAF7D0FE02460B4606
:1054E00010461946FBF778FB0346184A1360174B22
:1054F0001B681846FBF720F811A3D3E90023FBF73C
:1055000073F802460B4610461946FBF765FB034647
:105510000F4A13600E4B1B6807EE903AB0EE670A15
:10552000BDE8B083AFF3008098DD9387855AC33F11
:10553000053411363CBD0A403333333333D3444052
:10554000EC51B81E85AB30409C1300206013002046
:105550006413002080B5D0B000AF07F5A073A3F5A9
:105560009E731860234B1B685A1C22490A60002B4B
:1055700040F0F5811F4B01221A601F4B332200219E
:105580000020FCF777FE1C4B5B7E1B029AB21B4B84
:105590001A80194B9B7E1A46184B1B8813439AB2EC
:1055A000164B1A80154B1A88154B1A80134B1B8803
:1055B0004FF6FF72934207D1104B4FF496721A8048
:1055C0000E4B1A880E4B1A800B4B1B78FF2B0BD0FF
:1055D000094B5B78FF2B07D0074B9B78FF2B03D041
:1055E000054BDB78FF2B0FD1FEF78AF8054B0A221B
:1055F0001A60C8E06C1900207419002034000020E3
:1056000044000020CC1300209E4B1A789E4B1A7049
:105610009C4B5A789D4B1A709A4B9B781A469C4B20
:105620001A60984BDB781A469A4B1A60954B1A7998
:10563000994B1A70934B5B791A46984B1A60914BB1
:105640009B795AB2964B1A708E4BDA79954B1A7039
:105650008C4B1A7A944B1A708A4B5A7A934B1A7065
:10566000884B9A7A924B1A70864BDA7A914B1A7061
:10567000844B1A7B904B1A70824B5A7B8F4B1A705B
:10568000804B9A7B8E4B1A707E4BDA7B8D4B1A7057
:105690007C4B1A7C8C4B1A707A4B5A7C8B4B1A7051
:1056A000784B9A7C8A4B1A70764BDA7C894B1A704D
:1056B000744B1A7D884B1A70724B5A7D874B1A7047
:1056C000704B9B7D002B14BF01230023DAB2844B67
:1056D0001A706C4BDB7D002B14BF01230023DAB260
:1056E000804B1A70674B1B7E002B14BF01230023D5
:1056F000DAB27D4B1A70654B1A787C4B1A70624B8C
:105700001B781A467A4B1A60614B1B68794A136002
:10571000604B1B68784A13605F4B1A78774B1A709E
:10572000604B1A78764B1A70694B1A78754B1A7061
:105730005D4B1A785C4B1A705C4B1A785B4B1A7095
:105740005B4B1A785A4B1A705A4B1A78594B1A708D
:10575000594B1A78584B1A70584B1A78574B1A7085
:10576000574B1A78564B1A70564B1A78554B1A707D
:10577000554B1A78544B1A70544B1A78534B1A7075
:10578000614B0D221A60404B1B7819460220FCF732
:1057900057FF3E4B1B7819460320FCF751FF3E4B49
:1057A0001B7819460520FCF74BFF3C4B1B68DBB20E
:1057B00019460620FCF744FF394B93F90030DBB261
:1057C00019460720FDF75AF8364B1B781946082072
:1057D000FCF736FF3E4B1B7819460920FCF730FFDB
:1057E000314B1B7819461420FCF72AFF2F4B1B78EE
:1057F00019461520FCF724FF2D4B1B78194616205F
:10580000FCF71EFF2B4B1B7819461720FCF718FFDF
:10581000294B1B7819461820FCF712FF274B1B78E1
:1058200019461920FCF70CFF254B1B7819461A2046
:10583000FCF706FF234B1B7819462120FCF700FFDD
:10584000214B1B7819462220FCF7FAFE1F4B1B78D0
:1058500019462320FCF7F4FE0D4B1B68DBB21946FA
:105860002420FCF7EDFE0B4B1B68DBB2194625200C
:10587000FCF7E6FE174B1B7819462720FCF7E0FEE5
:1058800044E000BF741900203600002037000020DB
:105890002C000020300000205D190020601900203D
:1058A000380000206419002050000020E419002076
:1058B00051000020E5190020520000204D0000207A
:1058C000530000204E000020540000204F00002014
:1058D0006519002066190020AE190020E819002083
:1058E000D4190020391B0020381B00204C00002058
:1058F000480000203C0000204000002067190020E4
:105900006819002069190020CC130020344B1B8833
:1059100019460120FCF7B8FE324B1A7D324B1A7043
:10592000304B5A7D314B1A702E4B9B7D002B14BF90
:1059300001230023DAB22E4B1A702A4BDB7D002B99
:1059400014BF01230023DAB22A4B1A70254B1B7EA9
:10595000002B14BF01230023DAB2274B1A70274B08
:105960001B78DBB2002B00F0FB811E4B33220021A1
:105970000020FCF77FFC1B4B5B7E1B029AB2184B8E
:105980001A80184B9B7E1A46154B1B8813439AB2FC
:10599000134B1A80124B1A88194B1A80104B1B8814
:1059A0004FF6FF72934207D10D4B4FF496721A8057
:1059B0000B4B1A88124B1A800A4B1B78FF2B0BD00B
:1059C000084B5B78FF2B07D0064B9B78FF2B03D04F
:1059D000044BDB78FF2B15D1FDF792FED0E000BF22
:1059E0003400002074190020AE190020E8190020AE
:1059F000D4190020391B0020381B0020A7190020D3
:105A0000440000209F4B1A789F4B1A709D4B5A7888
:105A10009E4B1A709B4B9B781A469D4B1A60994B74
:105A2000DB781A469B4B1A60964B1A799A4B1A7080
:105A3000944B5B791A46994B1A60924B9B795AB2F8
:105A4000974B1A708F4BDA79964B1A708D4B1A7AE6
:105A5000954B1A708B4B5A7A944B1A70894B9A7AE1
:105A6000934B1A70874BDA7A924B1A70854B1A7BDC
:105A7000914B1A70834B5A7B904B1A70814B9A7BD7
:105A80008F4B1A707F4BDA7B8E4B1A707D4B1A7CD2
:105A90008D4B1A707B4B5A7C8C4B1A70794B9A7CCD
:105AA0008B4B1A70774BDA7C8A4B1A70754B1A7DC8
:105AB000894B1A70734B5A7D884B1A70714B9B7DC2
:105AC000002B14BF01230023DAB2854B1A706D4BF3
:105AD000DB7D002B14BF01230023DAB2814B1A7047
